:10000000000002207D040000312A0000372A000091
:10001000312A0000312A0000312A0000312A000074
:10002000000000000000000000000000312A000075
:10003000312A000000000000911A0000E3250000B2
:1000400000000000000000000000000000000000B0
:1000500000000000000000000000000000000000A0
:100060000000000000000000000000000000000090
:100070000000000000000000000000000000000080
:100080000000000000000000000000000000000070
:100090000000000000000000000000000000000060
:1000A0000000000000000000000000000000000050
:1000B000571F0000312A0000312A0000312A0000B9
:1000C0000000000000000000000000000000000030
:1000D0000000000000000000000000000000000020
:1000E0000000000000000000000000000000000010
:1000F0000000000000000000000000000000000000
:1001000000000000000000000000000000000000EF
:1001100000000000000000000000000000000000DF
:1001200000000000000000000000000000000000CF
:1001300000000000000000000000000000000000BF
:10014000312A0000312A00000000000000000000F9
:100150000000000000000000312A0000312A0000E9
:10016000312A000000000000312A0000312A00007E
:10017000312A000000000000000000000000000024
:100180000000000000000000312A00000000000014
:10019000312A000000000000000000000000000004
:1001A000000000000000000000000000000000004F
:1001B000000000000000000000000000000000003F
:1001C000000000000000000000000000000000002F
:1001D000000000000000000000000000000000001F
:1001E000000000000000000000000000000000000F
:1001F00000000000000000000000000000000000FF
:1002000000000000000000000000000000000000EE
:1002100000000000000000000000000000000000DE
:1002200000000000000000000000000000000000CE
:1002300000000000000000000000000000000000BE
:10024000312A000000000000000000000000000053
:10025000000000000000000000000000312A000043
:100260000000000000000000312A0000312A0000D8
:10027000000000000000000000000000000000007E
:10028000000000000000000000000000000000006E
:10029000000000000000000000000000000000005E
:1002A000000000000000000000000000000000004E
:1002B000000000000000000000000000000000003E
:1002C000000000000000000000000000000000002E
:1002D000000000000000000000000000000000001E
:1002E000000000000000000000000000000000000E
:1002F00000000000000000000000000000000000FE
:1003000000000000000000000000000000000000ED
:1003100000000000000000000000000000000000DD
:1003200000000000000000000000000000000000CD
:1003300000000000000000000000000000000000BD
:10034000312A000000000000000000000000000052
:100350000000000000000000312A0000312A0000E7
:10036000312A0000312A00000000000000000000D7
:10037000000000000000000000000000000000007D
:10038000312A0000312A0000312A0000312A000001
:10039000312A0000312A0000312A0000312A0000F1
:1003A0000000000000000000312A0000312A000097
:1003B000312A0000312A0000000000000000000087
:1003C000312A0000312A0000000000000000000077
:1003D000000000000000000000000000000000001D
:1003E000000000000000000000000000000000000D
:1003F00000000000000000000000000000000000FD
:1004000000000000000000000000000000000000EC
:1004100000000000000000000000000000000000DC
:1004200000000000000000000000000000000000CC
:1004300000000000000000000000000000000000BC
:10044000312A000000000000000000000000000051
:10045000312A0000312A0000312A0000000000008B
:10046000312A0000312A00000000000000000000D6
:08047000312A0000312A0000CE
:040478000000000080
:10047C0080B582B000AF134A134B9A4206D0134B8F
:10048C007B607A6810490F4802F0F7FB104B3B6019
:10049C003A6800210F4802F0A6FB02F0E9F902F0DD
:1004AC00C9F90D4B1B6803F5F40303F590530B4A84
:1004BC00A2FB03239B0D0A4A136000F047F800BE11
:1004CC00FEE700BF0000002038330000A001000050
:1004DC00C03B0000A00100203801002083DE1B433C
:0404EC0034010020B7
:1004F000F8B500BFF8BC08BC9E467047F8B500BF11
:10050000F8BC08BC9E46704708B5064B1A783AB945
:10051000054A1AB10548AFF30080024B01221A7058
:1005200008BD00BFA001002000000000383300001B
:1005300008B5034B1BB103490348AFF3008008BD66
:1005400000000000A401002038330000002A01D080
:1005500002F5807A704700BF162030A1ABBE2F484D
:100560004168002901D0344A11600168002901D195
:10057000304901608168C268294B002900D00B46D0
:100580009D46FFF7E3FF00218B460F462548264A8C
:10059000121A02F02EFB00F05FFA15202449ABBEC0
:1005A00023490968002001B40B780131002B15D0D4
:1005B000202BF9D0222B01D0272B01D11A0001E0EA
:1005C0002022013902B401300B780131002B05D013
:1005D0009A42F9D100224B1E1A70E5E769460200E3
:1005E00092006A446B469A4206D9043A14681D6820
:1005F00015601C600433F6E76C460725AC43A5463E
:1006000004000D00094802F019FA02F001FB200075
:10061000290001F009FB02F017FA00BF08000020D2
:1006200000000220A0010020603D0020592C0000A5
:1006300018010020603D0020200100200A4B10B569
:100640000446186818B1036A0BB902F09DFA132C1E
:1006500007D8064850F83430013302D000EBC4000C
:1006600010BD0020FCE700BF48010020C8010020A9
:10067000F8B50546132402F0C5FA002706462046C1
:100680003946ABBE044628463460F8BD431C01D150
:10069000FFF7EEBF704730B585B0062401AD039279
:1006A000CDE9010120462946ABBE04462046FFF7AE
:1006B000EDFF05B030BD70B50E461446FFF7BEFF26
:1006C000054630B902F09EFA092303604FF0FF306F
:1006D00070BD224631460068FFF7DDFF431CF5D0B0
:1006E0006B68201A03446B60F2E7F7B50C461646B8
:1006F000FFF7A4FF054640B902F084FA092303601E
:100700004FF0FF34204603B0F0BD022E03D902F0B3
:1007100079FA1623F3E7012E12D14368E418F6D4D0
:100720002B680A266F46CDE9003430463946ABBE09
:1007300006463046FFF7AAFF0028E1DB6C60E1E7E0
:10074000022EEDD103680C266F46009330463946E1
:10075000ABBE06463046FFF799FF431CD0D0044499
:10076000DEE7FFF7C2BF30B585B0052401AD0392C7
:10077000CDE9010120462946ABBE04462046FFF7DD
:1007800085FF05B030BD70B50E461546FFF756FF24
:10079000044630B902F036FA092303604FF0FF3007
:1007A00070BD2A4631460068FFF7DDFF031EF5DB0A
:1007B0006268E81AAB4202446260F1D10020BDE8F1
:1007C0007040FFF755BF37B5022401AD01902046B8
:1007D0002946ABBE04462046FFF758FF03B030BDA4
:1007E00038B50546FFF72AFF044630B902F00AFA89
:1007F000092303604FF0FF3038BD013D012D09D8BA
:10080000094B9A681B699A4204D14FF0FF33036089
:100810000020F1E72068FFF7D6FF0028ECD14FF069
:10082000FF332360E8E700BFC801002070B50C4625
:10083000FFF704FF064630B902F0E4F9092303602C
:100840004FF0FF3070BD63680C2543F400536360C4
:100850004FF48063A36428463146ABBE0546284664
:10086000FFF714FF431CEBD020610020EAE738B506
:100870000D46044658220021284602F0BAF92046C7
:10088000002100F011F8431C04460BD06B68294688
:1008900043F401436B60FFF7C9FF054620462C4631
:1008A000FFF79EFF204638BD2DE9F043814697B003
:1008B0000E460024DFF8A08058F83430E7000133FA
:1008C00034D00134142CF7D102F09CF918233BE00A
:1008D000C6F30045B30740F20163484648BF45F000
:1008E0000205CDF800901E4218BF45F0040516F031
:1008F000080F25F0040343F0080318BF1D4602F05B
:10090000CFF96E46CDE90150012528463146ABBEF0
:100910000546002D05DB4744002348F834507B6032
:1009200015E02846FFF7A4FE044610E006F4206315
:10093000B3F5206FCCD169464846FFF798FF0130E8
:10094000C6D002F05FF911234FF0FF340360204658
:1009500017B0BDE8F08300BFC80100202DE9F743C0
:1009600007461546884628480021FFF79DFF0446A4
:100970002A460021384602F03CF9631C13D0204679
:100980000C26FFF75BFE814630464946ABBE064665
:100990003046FFF77BFE032802DD0338A84207DC60
:1009A0002046FFF71DFF4FF0FF3003B0BDE8F08396
:1009B000042220460DEB0201FFF77DFE0328EFDD48
:1009C0009DF80430532BEBD19DF80530482BE7D12F
:1009D0009DF80630462BE3D19DF80730422BDFD13E
:1009E000012241462046FFF780FE0028D8DB2A4638
:1009F00039462046FFF75FFE05462046FFF7F0FE2A
:100A00002846FFF743FED0E75031000037B50021FC
:100A10000122094D01A8094C29602260FFF79EFFC1
:100A2000002807DD9DF8043003F0010203F0020303
:100A30002A60236003B030BD28010020240100207B
:100A400010B5044C2368002B01DAFFF7DFFF2068A4
:100A500010BD00BF240100202DE9FF47284F0323CC
:100A600000240125019701AE0393029428463146E4
:100A7000ABBE0546DFF8988023464FF0FF32214C8D
:100A8000C8F8005044F833200133142BFAD11E4D1E
:100A9000FFF7D6FFD8B104234FF0030901970126D1
:100AA000CDF80C900DEB030A029330465146ABBED5
:100AB0008246164B019701AFC3F800A00823CDF87A
:100AC0000C90029330463946ABBE06462E602B682A
:100AD00000260133666002BF0C4B1B682B60D8F800
:100AE00000302360FFF7ACFF30B1084B1B68C4E94E
:100AF00002362B68C4E9043604B0BDE8F08700BFB5
:100B000066310000C8010020BC010020C0010020A7
:100B1000C401002080B500AF00F024F900F0E8FE29
:100B200000BF80BD80B500AF104B1B6813F10F3FB5
:100B30000CD00E4B4FF0F0321A6001F021FDFFF7A0
:100B4000E9FF0B4B1B680133094A1360074B4FF059
:100B5000F0321A60074B1B68184601F03DFA034B50
:100B600000221A6000F07EFF00BF80BD2C01002033
:100B7000080300206802002080B592B000AFF86042
:100B8000B9607A603B6000233B647A6DEF21386D79
:100B900002F02FF8B0220021F86802F02AF8FB6872
:100BA000BA689A62FB687A685A64FB683A689A6421
:100BB000FB683A6DDA60FB687A6D5A61FB68BA6D62
:100BC000DA62FB68BA6DC3F89420FB683A6E9A61EA
:100BD000FB683A6EDA61FB682022C3F89C203B6D0B
:100BE000FB637B6D013BFA6B1344FB63FB68FA6BA1
:100BF0001A61BA6DFB6D9A4207D0FB680022DA6376
:100C0000FB680022C3F8982006E0FB68BA6DDA633F
:100C1000FB68BA6DC3F89820FB6803221A63FB686F
:100C2000484A5A65FA68FB689A654749F86800F0CF
:100C30007FFFEFF31083FB62FB6ABB6272B6BB6A95
:100C4000BB63FB68414A1A60414B1B68002B0BD108
:100C5000404AFB681360FB68FA68C3F88820FB68A9
:100C6000FA68C3F88C2016E03A4B1B687B637B6BF9
:100C7000D3F88C303B637B6BFA68C3F88C203B6BFA
:100C8000FA68C3F88820FB683A6BC3F88C20FB68CD
:100C90007A6BC3F888202E4B1B6801332C4A1360F3
:100CA0002D4B1B6801332C4A13607B6E012B29D11D
:100CB000EFF305837B627A6A284B1B681343B3F119
:100CC000F03F0DD3264B1B687B647B6C002B09D057
:100CD0007B6CDB6B3B647B6CDA6A7B6CDA6301E018
:100CE00000237B64BB6B3B623B6A83F3108800BFCD
:100CF000F86800F03FFA7B6C002B1ED07B6C3A6CDE
:100D0000DA631AE0BB6B3B613B6983F3108800BF79
:100D1000EFF31083BB61BB697B6172B67B69BB6318
:100D20000D4B1B68013B0C4A1360BB6BFB61FB69FD
:100D300083F3108800BF00F0E5F900231846483718
:100D4000BD4680BD451600008D0F0000445248543A
:100D50007C02002078020020080300202C010020E3
:100D60007402002080B400AF074B20221A60074BAA
:100D70001B6843F0834343F49C03044A136000BFA1
:100D8000BD4680BC704700BF8402002010030020D5
:100D900080B49BB000AF78600023FB65EFF3108355
:100DA000BB63BB6B7B6372B67B6BBB657B681B6B8A
:100DB000032B40F09C80EFF305833B633A6B6B4B56
:100DC0001B681343B3F1F03F0DD3694B1B683B66BF
:100DD0003B6E002B09D03B6EDB6BFB653B6EDA6A2A
:100DE0003B6EDA6301E000233B667B6800221A63F6
:100DF0007B68DB6A7B655F4A7B6D52F823303B651D
:100E00003B6D002B5BD15B497B6D7A6841F82320F9
:100E10007B687A681A627B687A685A6201227B6D05
:100E200002FA03F3BB64544B1A68BB6C1343524A77
:100E30001360524B1B687A6D9A424FD24F4A7B6DBA
:100E400013604B4B1B687B647B6C002B03D1484ABF
:100E50007B68136042E07B6CDB6B7A6D9A423DD21B
:100E6000434A7B6813603B6E002B02D03B6EFA6DE9
:100E7000DA63BB6DFB62FB6A83F3108800BF404BF3
:100E80001B683B643B6C002B17D13E4B4FF08052EC
:100E90001A60EFF30583BB62BB6A002B0CD1EFF342
:100EA00010837B627B6A3B6262B600BF3B6AFB6178
:100EB000FB6983F3108800BF00BF002350E03B6D47
:100EC0005B6AFB64FB6C7A681A623B6D7A685A62F3
:100ED0007B68FA6C5A627B683A6D1A623B6E002B33
:100EE00002D03B6EFA6DDA6300237B660BE07B6811
:100EF0005B6B012B05D17B6800225A6319237B664B
:100F000001E012237B66BB6DBB61BB6983F3108874
:100F100000BF1D4B1B68FB63154B1B68FA6B9A42A5
:100F20001DD0174B1B683B643B6C002B17D1154B36
:100F30004FF080521A60EFF305837B617B69002BD1
:100F40000CD1EFF310833B613B69FB6062B600BFDD
:100F5000FB68BB60BB6883F3108800BF00BF7B6E7B
:100F600018466C37BD4680BC704700BF2C0100207E
:100F700074020020880200208002002084020020E9
:100F80000803002004ED00E07002002080B588B066
:100F900000AF214B1B68FB61FB695B6CFA69926CCB
:100FA000104698471D4B1B68002B03D01B4B1B683A
:100FB000F8699847EFF310837B607B683B6072B6FB
:100FC0003B68BB61FB6901221A63FB6901229A63DA
:100FD000FB690022DA64124B1B680133104A13606C
:100FE000BB69BB60BB6883F3108800BFEFF3148359
:100FF000FB60FB687B617B6923F004037B617B6999
:101000003B613B6983F3148800BFF86900F0B2F9D3
:1010100000BF2037BD4680BD700200200C030020B9
:101020000803002080B58EB000AF7860EFF3108326
:10103000BB62BB6A7B6272B67B6A3B632E4B1B68EA
:10104000FB62FB6A002B08D13B6B3B623B6A83F37C
:10105000108800BF13237B6349E0EFF30583FB6136
:10106000FA69264B1B681343002B08D03B6BBB610E
:10107000BB6983F3108800BF13237B6337E07B6871
:10108000002B08D13B6B7B617B6983F3108800BF29
:1010900000237B632BE01A4B1B68002B08D03B6BB3
:1010A0003B613B6983F3108800BF13237B631EE021
:1010B000FB6A04221A63FB6A01229A63FB6A00221C
:1010C000C3F88420FB6A7A68DA640D4B1B6801332D
:1010D0000B4A13603B6BFB60FB6883F3108800BF17
:1010E000F86A00F047F9FB6AD3F884307B637B6BC6
:1010F00018463837BD4680BD700200202C01002004
:101100000803002080B489B000AF164B1B68FB6158
:10111000FB69002B21D1144B1B68BB61134B1B686F
:101120007B61BA697B699A4217D0114B4FF08052AC
:101130001A60EFF305833B613B69002B0CD1EFF3A1
:101140001083FB60FB68BB6062B600BFBB687B605E
:101150007B6883F3108800BF00BF00BF2437BD4603
:1011600080BC704708030020700200207402002039
:1011700004ED00E080B596B000AF7860EFF3108327
:101180007B637B6B3B6372B63B6B7B657B685B6EA3
:10119000002B05D07B684C33184600F02DFC02E094
:1011A0007B680022DA646C4B1B68013B6A4A13605F
:1011B0007B689B6B002B40F083807B681B6B002B54
:1011C00000F097807B685B6B002B72D17B680022FC
:1011D0001A637B68DB6A3B65604A3B6D52F82330DB
:1011E000FB64FB6C002B54D15C493B6D7A6841F881
:1011F00023207B687A681A627B687A685A620122C7
:101200003B6D02FA03F37B64554B1A687B6C134306
:10121000534A1360534B1B683A6D9A4269D2514A44
:101220003B6D1360504B1B683B643B6C002B03D140
:101230004D4A7B6813605CE03B6CDB6B3A6D9A4215
:1012400057D2494A7B6813607B6DFB62FB6A83F36C
:10125000108800BF404B1B68FB63FB6B002B74D1F5
:10126000424B4FF080521A60EFF30583BB62BB6ABA
:10127000002B0CD1EFF310837B627B6A3B6262B67A
:1012800000BF3B6AFB61FB6983F3108800BF00BFAE
:101290005BE0FB6C5B6ABB64BB6C7A681A62FB6CDC
:1012A0007A685A627B68BA6C5A627B68FA6C1A6216
:1012B0001FE07B6800225A637B6803221A6318E0F0
:1012C0007B681B6B012B14D07B681B6B022B10D02F
:1012D0007B685B6B002B06D17B6800229A637B687E
:1012E00000221A6305E07B6800225A637B680322B0
:1012F0001A631F4B1B68BB637B6DBB61BB6983F3C8
:10130000108800BF184B1B68BA6B9A4220D0124B52
:101310001B68FB63FB6B002B1AD1144B4FF0805200
:101320001A60EFF305837B617B69002B0FD1EFF32C
:1013300010833B613B69FB6062B600BFFB68BB602A
:10134000BB6883F3108800BF01E000BF00E000BF6E
:101350005837BD4680BD00BF08030020880200202A
:1013600080020020840200207402002004ED00E0CE
:101370007002002080B59EB000AF7860814B1B6882
:101380007B67EFF31083FB64FB6CBB6472B6BB6CD2
:101390003B677A687B6F9A4212D17B68DB6CFB6695
:1013A000FB6E002B08D0FB6EB3F1FF3F04D07B68CF
:1013B0004C33184600F0C0FA7B68DB69724A136050
:1013C000724B1B68013B714A13607B689B6B012B5E
:1013D00040F0A6807B6800229A637B68DB6ABB666C
:1013E0007B681B6A7B667A6E7B689A4215D07B6845
:1013F0005B6A3B657B6E3A6D5A623B6D7A6E1A6230
:10140000634ABB6E52F823307A689A4257D16049DA
:10141000BB6E7A6E41F8232051E05D4ABB6E00211D
:1014200042F823100122BB6E02FA03F33B66594BCC
:101430001A683B6EDB431340564A13600023FB657A
:10144000544B1B68BB65BB6D002B2BD1524B20222C
:101450001A60524B00221A603B6F7B647B6C83F3F3
:10146000108800BF494B1B687B657B6D002B40F0EB
:1014700081804B4B4FF080521A60EFF305833B6441
:101480003B6C002B0CD1EFF31083FB63FB6BBB6356
:1014900062B600BFBB6B7B637B6B83F3108800BFBE
:1014A00000BF67E0BB6D93FAA3F3BB65BB6DB3FAF6
:1014B00083F33B66FA6D3B6E1344374A1360374B38
:1014C0001B687A689A422BD1334B1B68304A52F81A
:1014D0002330324A13603B6F3B633B6B83F31088CE
:1014E00000BF2A4B1B687B657B6D002B44D12C4BC6
:1014F0004FF080521A60EFF30583FB62FB6A002B0A
:101500000CD1EFF31083BB62BB6A7B6262B600BF93
:101510007B6A3B623B6A83F3108800BF00BF2BE00D
:101520003B6FFB61FB6983F3108800BF1B4B1B689B
:101530007A6F9A4222D0154B1B687B657B6D002B1E
:101540001CD1174B4FF080521A60EFF30583BB613B
:10155000BB69002B0CD1EFF310837B617B693B618E
:1015600062B600BF3B69FB60FB6883F3108800BF75
:1015700000BF03E000BF02E000BF00E000BF78371B
:10158000BD4680BD70020020B40300200803002087
:1015900088020020800200208402002074020020C3
:1015A00004ED00E080B487B000AF204B1B687B6186
:1015B000EFF31083FB60FB68BB6072B6BB683B61F6
:1015C0001B4B00221A607B69002B24D07B691B6BAC
:1015D000002B20D17B69DA697B699A617B699B6901
:1015E000144A13607B691B6A7A699A4213D07B693B
:1015F000DA6A7B69DB6B9A420DD17B69DB6A7A69B7
:10160000126A0D4941F823200C4B1B680A4A52F814
:1016100023300B4A13603B697B607B6883F310883F
:1016200000BF00BF1C37BD4680BC70477002002061
:1016300018030020B4030020880200208402002048
:101640007402002080B58AB000AF78607B687B624E
:10165000EFF310837B617B693B6172B63B693B6250
:101660007B6A1B6B042B0ED1134B1B680133124A90
:1016700013603B6AFB60FB6883F3108800BF786AE5
:10168000FFF778FD13E07B6A9B6EFB617B6AD3F802
:10169000AC30BB613B6ABB60BB6883F3108800BFA2
:1016A000FB69002B03D0FB69B969786A984700BFD2
:1016B0002837BD4680BD00BF0803002080B594B028
:1016C00000AF0023FB63EFF31083BB62BB6A7B6256
:1016D00072B67B6AFB64804B1B68002B40F0F18084
:1016E0007E4B1B68002B00F0EC807B4B01221A60C4
:1016F0007B4B1B681B687B607B68002B02D07B6880
:101700003A1D9A61764B1B6800221A60744B1B6865
:101710000433734A1360724B1A68724B1B689A4207
:1017200003D1714B1B686E4A13606C4B00221A6028
:10173000FB6CBB61BB6983F3108800BFEFF31083C0
:101740003B623B6AFB6172B6FB69FB64ADE07B68A0
:10175000BB637B681B697B6300233B60BA6B7B6B5D
:101760009A4202D100237B600DE0BB6B5B693B6357
:101770007B6B3A6B5A613B6B7A6B1A617B6B3A1DE0
:101780009A617B6B7B60BB6B1B68202B10D9BB6B9A
:101790001B68A3F12002BB6B1A6000233B64BB6B88
:1017A0003A469A61BB6BBA6B1A61BB6B3B6019E03E
:1017B000BB6B9B683B64BB6BDB68FB63BB6B5A68B2
:1017C000BB6B1A60BB6B1B68002B08D0BB6B3A4627
:1017D0009A61BB6BBA6B1A61BB6B3B6002E0BB6B7F
:1017E00000229A61414ABB6B1360FB6C7B617B6991
:1017F00083F3108800BF3B6C002B02D03B6CF86B6E
:101800009847EFF310833B613B69FB6072B6FB685E
:10181000FB64364B00221A603B68BA6B9A4244D193
:10182000BB6B1B68202B02D91F237B6403E0BB6BBF
:101830001B68013B7B642A4B1A687B6C9B0013443A
:10184000BB64284B1B68BA6C9A420BD3254B1B68B0
:10185000BA6CD31A9B10FB62234B1A68FB6A9B007D
:101860001344BB64BB6C1B68002B09D1BB6BBA6B08
:101870001A61BB6BBA6B5A61BB6CBA6B1A6011E030
:10188000BB6C1B687B637B6B5B693B633B6BBA6BBD
:101890001A617B6BBA6B5A61BB6B7A6B1A61BB6B5B
:1018A0003A6B5A61BB6BBA6C9A617B68002B7FF410
:1018B0004EAF0A4B1B68002B7FF41AAF064B002279
:1018C0001A60FB6CBB60BB6883F3108800BF00BF6D
:1018D0005037BD4680BD00BFB0030020A8030020E4
:1018E000A4030020A00300209C030020AC030020E0
:1018F00080B400AF0A4B0B4A1A600B4B094A1A60BE
:101900000A4B0B4A1A60094B1B680433074A1360E1
:10191000084B00221A6000BFBD4680BC704700BF64
:101920009C0300201C030020A4030020A00300202F
:1019300098030020B003002080B489B000AF786025
:101940007B681B687B617B69002B4AD07B69B3F1A4
:10195000FF3F46D07B689B69002B42D17B69202BDF
:1019600002D91F23BB6102E07B69013BBB611F4BB6
:101970001A68BB699B001344FB611D4B1B68FA6925
:101980009A420BD31A4B1B68FA69D31A9B103B611E
:10199000184B1A683B699B001344FB61FB691B6889
:1019A000002B09D17B687A681A617B687A685A6172
:1019B000FB697A681A6011E0FB691B68FB60FB68D1
:1019C0005B69BB60BB687A681A61FB687A685A61B8
:1019D0007B68FA681A617B68BA685A617B68FA6941
:1019E0009A6100BF2437BD4680BC7047A403002025
:1019F000A00300209C03002080B487B000AF786073
:101A00007B689B697B617B69002B26D07B681B69A7
:101A10003B617A683B699A4208D17B691B687A68A6
:101A20009A4217D17B6900221A6013E07B685B69D8
:101A3000FB603B69FA685A61FB683A691A617B6925
:101A40001B687A689A4205D13B697A699A617B6919
:101A50003A691A607B6800229A6100BF1C37BD4654
:101A600080BC70474FF000002D4A1060EFF31480E7
:101A700020F0040080F3148862B64FF080504FF0DD
:101A8000E021C1F8040DBFF34F8FBFF36F8FFEE766
:101A90002448254A4FF00003016891B10360EFF339
:101AA000098C2CE9F00F1EF0100F01D12CED108ADB
:101AB0001E4C4CF804EDC1F808C025680DB18D61CD
:101AC000236072B61168D1B1016062B64F68174CDD
:101AD0008D6907F101074F602560D1F80CC08CF3C8
:101AE0000B88D1F808C05CF804EB1EF0100F01D190
:101AF000BCEC108ABCE8F00F8CF30988704772B612
:101B00001168016009B962B6F9E74FF000674FF05C
:101B1000E028C8F8047D62B6D8E700BF704700002F
:101B2000080300207002002074020020B40300208B
:101B3000026922F00702A2F144026FF0020313606F
:101B40004FF0000353609360D3601361536193615E
:101B5000D361136253629362D362136353634FF092
:101B6000FF339363D1634FF08073136482607047D7
:101B70002249086800F101000860214B1A683AB157
:101B8000A2F101021A601AB91E4B4FF00100186051
:101B90001D490868026822B11C4B4FF001021A600F
:101BA00008E000F104001A4B1A68904201D1194B69
:101BB00018680860134B1A6812B914490868C8B14C
:101BC00001B51249086808B1FFF778FD0D4B1A6896
:101BD00072B1FFF7E7FC1048016849B90F48016886
:101BE0000F4A13680F484FF08052994200D00260AC
:101BF000BDE80140BFF34F8F704700001403002081
:101C0000B403002018030020A4030020A803002030
:101C1000A00300209C030020080300207002002085
:101C20007402002004ED00E080B500AF00F036F94A
:101C300000F09CFB00F002F8FEE7000080B500AF6A
:101C4000024800F0DDF900BF80BD00BF511C00005C
:101C500080B500AF194A0A21002000F041FA03467E
:101C6000002B02D0164800F076FC002000F092FA1B
:101C70000346002B02D0134800F06DFC002000F05A
:101C8000CFFA0346002B02D00F4800F064FC0F4A45
:101C90000221052000F024FA0346002B02D00C4854
:101CA00000F059FC052000F075FA0346002B02D025
:101CB000084800F050FC00BF80BD00BFD91C0000E8
:101CC0006C310000B8310000DC310000291D00003B
:101CD0000432000050320000B0B582B000AF3B4685
:101CE0001946002000F0DEFA78607B68002B12D1E4
:101CF0003B681946002000F00BFB78607B68002BE6
:101D00000BD1084BD3E90023541C43F10005054BCC
:101D1000C3E90045E3E700BF00E000BF00BF0837AC
:101D2000BD46B0BDB803002080B586B000AF4FF00F
:101D300000024FF00003C7E904230023FB600023E7
:101D4000BB6030E01F4B1B68184600F053FA1D4B78
:101D50001B681A46FB681344FB60F9681A4800F0D8
:101D600063FB1A4BD3E90023C7E90023D7E900013D
:101D7000D7E90423994208BF904202D1144800F0E9
:101D800053FB3A683B69D31A1946124800F04CFBE2
:101D9000D7E90023C7E904230F4B1B68002B02D0AF
:101DA000BB680133BB600C4B1B68002BCAD00A4BCD
:101DB0001B68BA689A42C5DB00F0CAFB00BF18373F
:101DC000BD4680BD3001002074320000B803002001
:101DD000B832000000330000843B002080B400AF24
:101DE00000BFBD4680BC704780B400AF00BFBD4699
:101DF00080BC704780B487B000AF78603960254BF5
:101E00003B613DE03B68802B28BF8023FB600023C3
:101E10007B610CE07A687B69134493F900101E4AD9
:101E20007B6913440A461A707B6901337B617A69C6
:101E3000FB689A42EED33B690022C3F86821164A38
:101E40003B69C3F83C273B69FA68C3F840273B6904
:101E500001221A6500BF3B69D3F86831002B0CBF23
:101E600001230023DBB2002BF5D13B6901225A6527
:101E70007A68FB6813447B603A68FB68D31A3B605E
:101E80003B68002BBED100BF00BF1C37BD4680BCE5
:101E9000704700BF00401050C80B002080B483B0D2
:101EA00000AF0B4B7B607B680022C3F804267B6885
:101EB000084AC3F824257B680022C3F86C257B6898
:101EC0000822C3F8002500BF0C37BD4680BC704710
:101ED0000040105000E0D70180B483B000AF0B4B3E
:101EE0001B687B607B689BB27B607B6843F47F03ED
:101EF0007B607B6843F07F437B60044A7B681360B0
:101F000000BF0C37BD4680BC704700BF20ED00E02D
:101F100080B400AF054BC0221A70054B4FF08052C1
:101F20001A6000BFBD4680BC704700BF1CE400E0E3
:101F300000E100E080B584B000AF78607B685BB200
:101F4000FB7307F10F0301211846FFF753FF00BF92
:101F50001037BD4680BD80B500AFFFF73FFFFFF7EC
:101F600043FF00BF80BD80B483B000AF78607B6862
:101F7000002B01DC01237B607B681F2B01DD1F230D
:101F80007B607B68013B18460C37BD4680BC7047C0
:101F900080B584B000AF78607B68FB60FB68002B85
:101FA00017DBFB68092B14DC0A4AFB684FF49761C6
:101FB00001FB03F3134404331B68002B09D0054ACB
:101FC000FB684FF4976101FB03F3134404331B6870
:101FD0009847FEE7480C002080B582B000AF7860DB
:101FE000064B1B68002B02D0044B1B689847FFF779
:101FF0008FFF00BF0837BD4680BD00BF803B00207B
:1020000080B586B000AF78602F4A7B6813600023EC
:102010007B611FE02D4A7B694FF4976101FB03F35D
:10202000134400221A70294A7B694FF4976101FB1F
:1020300003F3134401331F221A70244A7B694FF4BF
:10204000976101FB03F31344043300221A607B6998
:1020500001337B617B69092BDCDD00233B6107E0F9
:102060001B4A3B69134400221A703B6901333B61F0
:102070003B69002BF4DD0023FB6007E0154AFB6899
:10208000134400221A70FB680133FB60FB68002BCD
:10209000F4DD0023BB600CE00F4ABB681344002250
:1020A0001A700E4ABB68002142F82310BB68013346
:1020B000BB60BB68002BEFDDFFF70EFFFFF7EEFE06
:1020C000FEF730FDFEE700BF803B0020480C0020FB
:1020D000783B00207C3B0020C40B0020C00B00207C
:1020E000F0B58DB006AFF860B9607A60FB68002B80
:1020F0000BDBFB68092B08DCBB68002B05DDBB682C
:102100001F2B02DC7B68002B01D1012338E0FB6828
:102110004FF4976202FB03F31B4A13447B617B6914
:1021200001221A70BB68DAB27B695A707B697A68DF
:102130005A607B6903F10805FE687B6903F1B80406
:10214000B868FFF710FF3860B868FFF70CFF034668
:10215000002205920022049203933B6802934FF4FD
:102160008063019300943346084A09492846FEF7E4
:1021700003FD38613B69002B14BF01230023DBB250
:1021800018461C37BD46F0BD480C0020911F0000CA
:102190001C33000080B582B000AF78607B68002BF4
:1021A0000FDB7B68092B0CDC114A7B684FF49761CD
:1021B00001FB03F313441B7883F00103DBB2002B14
:1021C00001D0012310E07B684FF4976202FB03F318
:1021D0000833074A13441846FEF7DAFD0346002B7E
:1021E00014BF01230023DBB218460837BD4680BD6B
:1021F000480C002080B582B000AF78607B68002B6F
:1022000005DD7B684FF47A7202FB03F300E00023E4
:102210001846FEF707FF00BF0837BD4680BD000027
:1022200080B487B000AF78607B68002B02DB7B68EE
:10223000002B01DD012329E07B68DB02164A1344F1
:102240003B6116497B683A6941F8232000237B6192
:102250000EE07B69DB013A691344FB607B69013363
:10226000DB013A691A44FB681A607B6901337B61C0
:102270007B690E2BEDDD3B6903F5F06300221A60EC
:10228000074A7B68134401221A70002318461C3742
:10229000BD4680BC704700BFC0030020C00B0020BB
:1022A000C40B002080B485B000AF786039607B68D3
:1022B000002B0EDB7B68002B0BDC134A7B6813447E
:1022C0001B7883F00103DBB2002B02D13B68002BAB
:1022D00001D1012313E00D4A7B6852F82330FB60E3
:1022E000FB68002B01D1012309E0FB681A6807494C
:1022F0007B6841F823203B68FA681A60002318467F
:102300001437BD4680BC7047C40B0020C00B0020B2
:1023100080B483B000AF786039607B68002B0EDB3F
:102320007B68002B0BDC0F4A7B6813441B7883F01F
:102330000103DBB2002B02D13B68002B01D101234A
:102340000BE0094A7B6852F823203B681A60064973
:102350007B683A6841F82320002318460C37BD46B5
:1023600080BC7047C40B0020C00B002080B400AFBD
:1023700000BFBD4680BC704780B58AB000AF7860B2
:1023800000237B627B68002B1ED13020FFF7D2FD3B
:102390002DE07968174BA3FB0123DA0813469B0055
:1023A00013445B00CA1AD3B23033D9B27B6A5A1CC9
:1023B0007A624AB228333B4403F81C2C7B680D4AEE
:1023C000A2FB0323DB087B607B68002BE1D10BE0E1
:1023D0007B6A013B7B6207F10C027B6A134493F931
:1023E00000301846FFF7A6FD7B6A002BF0DC28378B
:1023F000BD4680BDCDCCCCCC80B582B000AF78607E
:102400007B68002B08DA2D20FFF794FD7B685B4288
:102410001846FFF7B1FF03E07B681846FFF7ACFFF3
:1024200000BF0837BD4680BD0FB480B582B000AF95
:1024300007F114033B6078E03B6993F90030252BEA
:1024400008D03B695A1C3A6193F900301846FFF7EF
:1024500071FD6AE03B6901333B613B6993F90030F0
:10246000732B38D0732B53DC6C2B0AD06C2B4FDCC6
:10247000642B28D0642B4BDC002B5CD0252B43D065
:1024800046E03B6901333B613B6993F90030752BB2
:1024900007D13B681A1D3A601B681846FFF76CFFAE
:1024A00040E02520FFF746FD6C20FFF743FD3B6928
:1024B00093F90030002B40D03B6993F90030184667
:1024C000FFF738FD2EE03B681A1D3A601B6818467E
:1024D000FFF792FF26E03B681A1D3A601B687B609D
:1024E0007B68002B0AD1194B7B6007E07B685A1C84
:1024F0007A6093F900301846FFF71CFD7B6893F96A
:102500000030002BF2D10DE02520FFF713FD09E08C
:102510002520FFF70FFD3B6993F900301846FFF7C0
:1025200009FD00BF3B6901333B613B6993F9003012
:10253000002B81D102E000BF00E000BF00BF0837E0
:10254000BD46BDE8804004B0704700BF283300009E
:1025500080B400AFFEE780B582B000AF786007E0DE
:102560007B685A1C7A6093F900301846FFF7E2FC4A
:102570007B6893F90030002BF2D1FEE700000000E9
:1025800072B61D481D4901F1040101604FF0E020C1
:102590001B49C0F8081D1B481949096801601A4801
:1025A000016841F0010101604FF0E02017494161ED
:1025B0004FF0070101614FF00001C0F8181D4FF006
:1025C0007F41C0F81C1D1249C0F8201D7047FFF75D
:1025D000FEBFFFF7FEBFFFF7FEBF01B5BDE801403C
:1025E000704701B5FFF7C4FABDE801407047FFF737
:1025F000FEBFFFF7FEBF0000680200209C01002024
:10260000000000006C020020001000E0FFF3010059
:102610000000FF4080B483B000AF786000BEFEE7EA
:1026200080B483B000AF0E4B1B687B600D4B1B6802
:102630003B607B681C2B0CD13B68012B03D03B68B3
:10264000022B02D003E0012304E0002302E0002378
:1026500000E0002318460C37BD4680BC704700BF21
:1026600040C3FF0044C3FF0080B483B000AF0E4BF3
:102670001B687B600D4B1B683B607B681C2B0CD17F
:102680003B68012B03D03B68022B02D003E00123FF
:1026900004E0002302E0002300E0002318460C378A
:1026A000BD4680BC704700BF40C3FF0044C3FF006D
:1026B00080B483B000AF0E4B1B687B600D4B1B6872
:1026C0003B607B681C2B0CD13B68012B03D03B6823
:1026D000022B02D003E0012304E0012302E00123E6
:1026E00000E0002318460C37BD4680BC704700BF91
:1026F00040C3FF0044C3FF0080B483B000AF0E4B63
:102700001B687B600D4B1B683B607B681C2B0CD1EE
:102710003B68012B03D03B68022B02D003E001236E
:1027200004E0002302E0002300E0002318460C37F9
:10273000BD4680BC704700BF40C3FF0044C3FF00DC
:1027400080B483B000AF78607B681B6803F002033D
:10275000002B11D07B681B6803F00103002B12D003
:102760000B4B0922C3F80C25094B0F22C3F8042593
:10277000074B01221A60FEE77B68064A1A607B68F5
:10278000054A1A6000E000BF0C37BD4680BC7047A8
:1027900000801050F000FA500100FA5080B483B06D
:1027A00000AF78607B681B6803F00203002B11D038
:1027B0007B681B6803F00103002B12D00B4B09222E
:1027C000C3F80C25094B0F22C3F80425074B01223F
:1027D0001A60FEE77B68064A1A607B68054A1A6041
:1027E00000E000BF0C37BD4680BC70470080105031
:1027F000F000FA500100FA5080B500AF0848FFF72A
:102800009FFF0848FFF79CFF0748FFF7C7FF0748EF
:10281000FFF7C4FF0648FFF793FF00BF80BD00BF6E
:1028200000C50D5008C50D5010C50D5018C50D50F0
:1028300000C70D5080B400AF00BFBD4680BC7047DC
:1028400080B400AF094BD3F80438012B05D0032B1B
:1028500007D1074B074A1A6003E0054B064A1A6086
:1028600000BF00BFBD4680BC704700BF00001250D3
:10287000380100200090D0030020A10780B582B06D
:1028800000AF5B4B0122C3F800285A4B0022C3F86B
:102890000421584B01229A6000BF564BD3F80431F3
:1028A000002BFAD0FFF7CCFF534B0122C3F80424CE
:1028B000FFF7FEFE0346002B02D0504B01221A60A8
:1028C000FFF79AFF4E4BD3F88C304D4A43F44063E8
:1028D000C2F88C30FFF7AEFF00237B6000237B60E3
:1028E0000FE0484A47497B68803351F83330194636
:1028F0007B688033DB0013445B680B607B680133CB
:102900007B607B683F2B0ED83E4A7B68803352F851
:102910003330B3F1FF3F06D03A4A7B68803352F838
:102920003330002BDDD1384B1B68002B02D1364BE6
:10293000C8221A60FFF798FE0346002B07D0334BDE
:102940001B68334A934202D8324B334A1A60FFF76E
:10295000D3FE0346002B02D0304B314A1A60FFF7FA
:102960005FFE0346002B08D02E4B34221A602E4BFC
:102970001B682D4A23F4002313601E4BD3F8003646
:1029800003F00103002B04D01A4B6FF00102C3F8CF
:102990000026264BD3F81835244A23F00303C2F847
:1029A0001835224BD3F81835204A43F00303C2F8F8
:1029B0001835134BD3F88C30114A43F44063C2F8F6
:1029C0008C300F4BD3F888300D4A43F47003C2F8B3
:1029D0008830BFF34F8F00BFBFF36F8F00BF134B23
:1029E0000022C3F8A02500BF0837BD4680BD00BF48
:1029F0000000125000E01050002008E00C34055098
:102A000000ED00E000C0FF004004125034C3FF009E
:102A1000001D0A184006125040E0A91EACA708503D
:102A200078000A04240612503C06125000B00450EC
:102A300080B400AFFEE780B400AFFEE7002301469C
:102A40001A46184600F034B908B5064B044613B1CF
:102A5000002100F089F9044B1B6803B19847204618
:102A6000FFF7D8FD692D0000C03C0020002310B501
:102A700004468360818119464366C28108228361CE
:102A8000C0E90033C0E904335C3000F0B2F80D4B0C
:102A9000246263620C4BA3620C4BE3620C4B236316
:102AA0000C4B9C4206D003F16802944202D0D03312
:102AB0009C4205D104F15800BDE8104000F0E0B898
:102AC00010BD00BF552E0000772E0000AF2E000075
:102AD000D52E0000883B0020024A0349034800F03D
:102AE0006BB800BF3C010020DD2F00004C0100202E
:102AF00041680C4B994210B5044601D000F06EFAC3
:102B0000A168094B994202D0204600F067FAE168BB
:102B1000064B994204D02046BDE8104000F05EBA52
:102B200010BD00BF883B0020F03B0020583C002037
:102B30000A4B04210A4A0B4810B51A600022FFF71D
:102B400095FF012209210848FFF790FF0222122178
:102B50000648BDE81040FFF789BF00BFC03C002019
:102B6000D92A0000883B0020F03B0020583C002080
:102B7000014800F086B800BFC63C0020014800F0C4
:102B800081B800BFC63C002010B50446FFF7F0FF37
:102B9000236A1BB1BDE81040FFF7F0BF044B23626E
:102BA000044B1B68002BF5D1FFF7C2FFF2E700BF13
:102BB000F12A0000C03C00202DE9F84380468946F8
:102BC00014460026D4E90175013F05D52468002C80
:102BD000F8D13046BDE8F883AB89012B07D9B5F9A8
:102BE0000E30013303D029464046C84706436835B6
:102BF000EAE702440346934200D1704703F8011B01
:102C0000F9E70000014B1868704700BF4801002039
:102C100070B50D4B00260D4C1D1BB6EBA50F09D151
:102C20000B4CFDF765FC0B4B00261D1BB6EBA50FEF
:102C300005D170BD54F8043B01369847EDE754F8D0
:102C4000043B01369847F1E7000000200000002017
:102C5000000000200400002038B5074D074C641B1D
:102C6000A4101CB9BDE83840FDF748BC013C55F83C
:102C700024309847F5E700BF04000020080000203A
:102C80007047704770470A44431E914200D1704715
:102C900010B511F8014B914203F8014FF9D110BD65
:102CA000034613F8012B002AFBD1181A013870478C
:102CB0002DE9F843274D064691460F462868984669
:102CC000FFF7DFFF244A14683CB9244B1360244A01
:102CD00012B11268C3F88820204C63681F2B06DDF0
:102CE0002868FFF7CFFF4FF0FF30BDE8F8833EB311
:102CF000D4F8880068B91B4B002BF1D04FF48470D6
:102D0000AFF300800028EBD00023C0E94033C4F8C3
:102D1000880063680121022E40F8239001FA03F134
:102D2000D0F8002100EB830C42EA0102C0F8002138
:102D3000CCF8808002BFD0F804210A43C0F80421F7
:102D40005A1C02332868626044F82370FFF79AFF28
:102D50000020CAE798010020543D0020C83C002014
:102D600000000000000000002DE9F04F314F85B059
:102D7000DFF8C480894602903868FFF782FFD8F8F0
:102D800000B0BBF1000F05D1386805B0BDE8F04FC9
:102D9000FFF778BF5D46DBF8886055F8042F06F131
:102DA000800A541E05EB8205002CEDDBB9F1000F03
:102DB00007D016B9013C043DF6E75AF824204A45ED
:102DC000F8D1DBF804102A680139A14216BF0023AC
:102DD000CBF804402B60002AECD0DBF804303868D4
:102DE00003920193FFF74EFF039A3EB10123D6F8F9
:102DF000001103FA04FC1CEA010F0DD1904738685A
:102E0000FFF73FFFDBF80420019B9A42B7D1D8F8C7
:102E100000209345CED0B2E7D6F8040156F824102E
:102E20001CEA000F02D102989047E8E70846904755
:102E3000E5E700BF98010020543D00200148FFF75E
:102E400020BF00BFC43C00200148FFF71BBF00BFEC
:102E5000C43C002010B50C46B1F90E1000F0F8F893
:102E60000028ABBF636DA3891B1823F48053ACBF4C
:102E70006365A38110BD2DE9F0411F468B8905468E
:102E80000C46DB05164605D502230022B1F90E10CB
:102E900000F0CCF8A3893246B4F90E10284623F48A
:102EA0008053A3813B46BDE8F04100F0E3B810B584
:102EB0000C46B1F90E1000F0B9F8421CB4F90C3010
:102EC00015BF606523F4805343F48053A38118BF7A
:102ED000A38110BDB1F90E1000F0DEB8B1F90C20DD
:102EE0002DE9F041160705460C4651D44B68002BDE
:102EF00002DC0B6C002B49DDE66A002E46D0002375
:102F000012F480522F682B6031D0626DA38959076B
:102F100005D56368D21A636B0BB1236CD21A0023F8
:102F2000E66A216A2846B047421CB4F90C3006D143
:102F300029681D2944D8284ACA40D60740D500220E
:102F4000D90462602269226004D5421C01D12B6839
:102F500003B96065616B2F60C1B104F1440399420C
:102F600002D0284600F0A8F8002363630EE0012396
:102F7000216A2846B0470246501CC7D12B68002B57
:102F8000C4D01D2B01D0162B19D12F6000201CE0BE
:102F90000F69002FFAD093070E680F600CBF4B69C2
:102FA0000023A6EB07088B60B8F1000FEEDD434667
:102FB0003A46216A2846A66AB047002807DCA3895A
:102FC00043F040034FF0FF30A381BDE8F081074498
:102FD000A8EB0008E8E700BF0100402038B50B6906
:102FE00005460C4613B91D46284638BD18B1036A7C
:102FF0000BB9FFF7C9FDB4F90C30002BF3D0626EAA
:10300000D00704D4990502D4A06DFFF73AFE2846F4
:103010002146FFF763FF636E0546DA07E4D4A38910
:103020009B05E1D4A06DFFF72DFEDDE738B5054621
:10303000064C08461146002222601A46FDF791FB15
:10304000431C02D1236803B12B6038BD5C3D0020D6
:1030500038B50546064C08461146002222601A463D
:10306000FDF729FB431C02D1236803B12B6038BD57
:103070005C3D002038B50546064C08461146002246
:1030800022601A46FDF77FFB431C02D1236803B17F
:103090002B6038BD5C3D002038B50023054C05464B
:1030A00008462360FDF79CFB431C02D1236803B153
:1030B0002B6038BD5C3D002037B5002943D051F866
:1030C000043C0C1F0190002BB8BFE418FFF7B6FEBC
:1030D0001E4A0198136833B96360146003B0BDE8F9
:1030E0003040FFF7B1BEA34208D9256861198B4271
:1030F00001BF19685B6849192160EDE71A465B68F2
:103100000BB1A342FAD911685518A5420BD1246816
:10311000214454181160A342E0D11C685B680C4440
:1031200053601460DAE702D90C230360D6E7256800
:1031300061198B4202BF19685B684919636008BF57
:1031400021605460CAE703B030BD00BF583D002085
:103150003A73656D69686F7374696E672D66656132
:103160007475726573003A747400000046415441EE
:103170004C3A20746D5F7468726561645F63726558
:1031800061746528302C2031302C20746D5F6D65A2
:103190006D6F72795F616C6C6F636174696F6E5F84
:1031A0007468726561645F305F656E74727929203E
:1031B0006661696C65640A00464154414C3A20746A
:1031C0006D5F7468726561645F726573756D6528A3
:1031D0003029206661696C65640A000046415441EB
:1031E0004C3A20746D5F6D656D6F72795F706F6FB3
:1031F0006C5F637265617465283029206661696C53
:1032000065640A00464154414C3A20746D5F74680D
:10321000726561645F63726561746528352C203264
:103220002C20746D5F6D656D6F72795F616C6C6F72
:10323000636174696F6E5F7468726561645F726503
:10324000706F727429206661696C65640A00000001
:10325000464154414C3A20746D5F746872656164F4
:103260005F726573756D65283529206661696C65C7
:10327000640A00002A2A2A2A205468726561642D93
:103280004D6574726963204D656D6F727920416C74
:103290006C6F636174696F6E2054657374202A2AA1
:1032A0002A2A2052656C61746976652054696D65BF
:1032B0003A20256C750A00004552524F523A204977
:1032C0006E76616C696420636F756E7465722076CA
:1032D000616C75652873292E204572726F722061AA
:1032E0006C6C6F636174696E672F6465616C6C6F81
:1032F000636174696E67206D656D6F7279210A0074
:1033000054696D6520506572696F6420546F7461F3
:103310006C3A2020256C750A0A000000746D0000CC
:0F332000746D7100746D7300286E756C6C2900EC
:083330001CD2FF7F0100000028
:103338003105000009050000000000000000000041
:103348000000000000000000000000000000000075
:103358000000000000000000000000000000000065
:103368000000000000000000000000000000000055
:103378000000000000000000000000000000000045
:103388000000000000000000000000000000000035
:103398000000000000000000000000000000000025
:1033A8000000000000000000000000000000000015
:1033B8000000000000000000000000000000000005
:1033C80000000000000000000000000000000000F5
:1033D80000000000000000000000000000000000E5
:1033E80000000000000000000000000000000000D5
:1033F80000000000000000000000000000000000C5
:1034080000000000000000000000000000000000B4
:1034180000000000000000000000000000000000A4
:103428000000000000000000000000000000000094
:103438000000000000000000000000000000000084
:10344800000000000000000018000020FF0000003D
:10345800ADDEFECAFFFFFFFFFFFFFFFFF0F0F0F059
:103468001E000000010000000090D00300000000D2
:1034780003000000883B00204C01002000000000F1
:10348800883B0020F03B0020583C00200000000052
:103498000000000000000000000000000000000024
:1034A8000000000000000000000000000000000014
:1034B8000000000000000000000000000000000004
:0C34C8000000000000000000C53C0020D7
:040000030000047D78
:00000001FF
