:1000000008380020F52700000F950000E1270000C8
:10001000E1270000E1270000E1270000E1270000C0
:10002000000000000000000000000000592900004E
:10003000E127000000000000FD280000E12700008B
:100040001D2B00001D2B00001D2B00001D2B000090
:100050001D2B00001D2B00001D2B00001D2B000080
:100060001D2B00001D2B00001D2B00001D2B000070
:100070001D2B00001D2B00001D2B00001D2B000060
:10047C0053B94AB9002908BF00281CBF4FF0FF31FF
:10048C004FF0FF3000F00CB8ADF1080C6DE904CE64
:10049C0000F010F8DDF804E0DDE9022304B0704749
:1004AC00704700BF034613F8012B002AFBD1181A22
:1004BC00013870472DE9F04786468C460846089E61
:1004CC00154674461946002B40F0C1808542B2FA9D
:1004DC0082F245D94AB1C2F1200300FA02FC9540E0
:1004EC0094402EFA03F343EA0C0C4FEA154EA8B2D3
:1004FC00230CBCFBFEF80EFB18CC08FB00F943EAFE
:10050C000C43994528D9EB1808F1FF3704D29945CB
:10051C0002D9A8F102072B44A3EB0903A4B2B3FB45
:10052C00FEFC0EFB1C330CFB00F044EA0344A0421F
:10053C0014D92C190CF1FF3304D2A04202D9ACF11E
:10054C0002032C44241A43EA07401EB1D440002372
:10055C0034607360BDE8F0874746DDE76346F1E73A
:10056C0092BB431B01214FEA154EAFB2200CB3FBDB
:10057C00FEFC0EFB1C330CFB07F840EA03439845CA
:10058C0061D9EB180CF1FF3004D2984502D9ACF1CB
:10059C0002002B44A3EB0803A4B2B3FBFEFC0EFB3E
:1005AC001C330CFB07F744EA0344A7424DD92C1922
:1005BC000CF1FF3304D2A74202D9ACF102032C4454
:1005CC00E41B43EA0040C0E7C2F12003954094408D
:1005DC0020FA03F12EFA03F34FEA154E9040AFB216
:1005EC000343B1FBFEFC0EFB1C10190C0CFB07F8B3
:1005FC0041EA0041884522D969180CF1FF3004D238
:10060C00884502D9ACF102002944A1EB08019BB248
:10061C00B1FBFEFC0EFB1C110CFB07F743EA01437C
:10062C009F420ED9EB180CF1FF3104D29F4202D934
:10063C00ACF102012B44DB1B41EA004193E760461D
:10064C00E3E76146F7E76046A4E76346B8E7834211
:10065C0006D916B9002108467CE7C6E900E0F9E79F
:10066C00B3FA83F78FB9834201D3724508D8BEEB36
:10067C00020460EB030301209C461EB9002169E7CC
:10068C003846FAE7C6E9004CF8E7C7F1200CBB4046
:10069C000EFA07F522FA0CF42EFA0CF1BA401C43B0
:1006AC0020FA0CF3B8404FEA144901431FFA84FEB8
:1006BC00B3FBF9F809FB18300B0C08FB0EFA43EAF4
:1006CC0000439A4540D9E31808F1FF3004D29A450B
:1006DC0002D9A8F102002344A3EB0A0389B2B3FBAD
:1006EC00F9F809FB183308FB0EFE41EA03418E456D
:1006FC002CD9611808F1FF3304D28E4502D9A8F128
:10070C000203214443EA0040A1EB0E01A0FB029836
:10071C004145CE46434602D306D14D4504D201385D
:10072C00B9EB020E68EB0403002EA7D0B5EB0E025A
:10073C0061EB030101FA0CFC22FA07F3F9404CEAD5
:10074C000303C6E9003199E74046C5E74346D9E7BC
:10075C0008B50D4B1A68AAB901220C481A6000F0B2
:10076C005FF80B4800F05CF80A4800F059F80A48AA
:10077C0000F056F8094800F053F8BDE80840084866
:10078C0000F04EB808BD00BF5805002048AD000071
:10079C0078AD000068AD000058AD000088AD0000D9
:1007AC0098AD000010B5044658B1FFF77BFE01462A
:1007BC00204600F089FDBDE810400121014800F001
:1007CC0083BD10BDBCCB00000FB400B5C3B0449AC0
:1007DC00B2B14FF4807145AB02A8019308F0F0F967
:1007EC00011E0DDDFF29C4BF0023FF2102A8C8BFD5
:1007FC008DF8073100F068FD0121044800F064FD1C
:10080C0043B05DF804EB04B0704700BFBCCB0000F4
:10081C000048704728AF0000004870472CAF00001C
:10082C0050B1C36843B1054A13680F2B9FBF591CC5
:10083C001160034A42F82300704700BF5C0500209A
:10084C0060050020014B1868704700BF5C05002054
:10085C00044B1B68834286BF034B53F820000020D7
:10086C00704700BF5C0500206005002003289ABF7C
:10087C00024B53F820000248704700BF38AD00000F
:10088C0033AF000038B50D46044660B159B1E022D3
:10089C00002109F0E7FB2B6823606B686360AB6891
:1008AC00A360014B236138BD59AF000000232DE933
:1008BC00F04FDFF8C081704EDFF8C091DFF8C0A1B7
:1008CC00704DC1B0C8F800303360C9F80030CAF8B8
:1008DC0000302B60FFF73CFF6B48FFF763FF00F025
:1008EC0083FC044669496A48FFF76EFFB4B1D4E94A
:1008FC0000126848FFF768FFA07DE37AA27A217A9C
:10090C000590607D0490207D0390207C0290E07B1C
:10091C000190607B00906048FFF756FF00F0DEFC12
:10092C00069000F0DFFC074600F0CAFC8346FFF798
:10093C006FFF0446FFF770FF4FF47A733A46CDE928
:10094C000240CDE900B30699544B5548FFF73CFFE4
:10095C00FFF778FF00270690069B9F421DD1029758
:10096C002B6850480193DAF800300093D9F8003026
:10097C003268D8F80010FFF727FF4B48FFF712FF3B
:10098C0008F088FC3368002B71D12868003818BF38
:10099C000120404241B0BDE8F08F3846FFF758FFC8
:1009AC00044600283FD0C368002B3CD0014608A861
:1009BC00FFF768FFD4E9013221683C48FFF704FFD8
:1009CC0008A8E36898479DF82C0003283DD8DFE879
:1009DC0000F0022C3036D8F800300133C8F8003063
:1009EC00089CDDF828B0FFF741FF0C9A304903460C
:1009FC00002A08BF0A462F48214600925A46FFF7A4
:100A0C00E3FE4FF0000B08AC3E9B2B489B4508992E
:100A1C001FD39DF82C000791FFF728FF079902467A
:100A2C002648FFF7D1FE013796E733680133336070
:100A3C00D6E7D9F800300133C9F80030D0E7DAF83E
:100A4C0000300133CAF80030CAE72B6801332B6041
:100A5C00C6E7A36A164A0BF1010B002B08BF13461D
:100A6C000093236AA269FFF7AFFE1834CCE74FF06E
:100A7C00FF308FE7B0050020AC050020A805002052
:100A8C00A4050020A00500205CAF00006CAF0000A6
:100A9C007AAF00008BAF0000ABAF00000020A107C5
:100AAC0023B000001BB1000067B100007EB0000055
:100ABC00BDCB0000A3B00000D5B0000002B1000017
:100ACC0000212DE9F04FADF56D7D0DF120080546A7
:100ADC0005224046079108F058FB07AF0146002855
:100AEC0040F099800CAE0522304608F04EFB0446CF
:100AFC00002840F0938010AB9B46DFF838914E4AAB
:100B0C004E490DF1900A4FF0000C0BEB0410C3E9A9
:100B1C0000869F60C0F80CC04FF480604FF0020C50
:100B2C00CDF80090CDE9010C5046059300F08CFBFC
:100B3C00002875D1059B0134052C40493E4A03F130
:100B4C0010030AF1A00A09F58069DCD1A1464046E0
:100B5C0008F03BFB002865D1B9F10109F7D142F24D
:100B6C00107008F0FDFA00285ED101233B6041F2C1
:100B7C008831304608F017FB0746002856D1013C57
:100B8C00F5D122464FF0FF36A146A0460BEB0213DF
:100B9C00DB68002B4CD09E4228BF1E469C4238BFBF
:100BAC001C46013213EB090348F10008052A99464B
:100BBC00ECD1234B0522284622490093002308F050
:100BCC0044FA214B4A4600934346DFF8808028467E
:100BDC001F4908F03AFA3246002328461D49CDF841
:100BEC00008008F032FA2246002328461A49CDF834
:100BFC00008008F02AFA194B42F210720093284632
:100C0C000023174908F021FA164B2F732B610DF5B1
:100C1C006D7DBDE8F08F144B0127F6E7134BFBE716
:100C2C00134BF9E7134BF7E7134BF5E7134BF3E7CC
:100C3C00134BF1E7080E00209190000053B2000016
:100C4C006CB2000064B200007AB2000092B20000F4
:100C5C0074B2000081B200009DB20000BAB2000074
:100C6C00AEB2000031B2000075B1000093B10000CB
:100C7C00B0B10000CCB10000E8B1000001B200003E
:100C8C0017B2000001222DE9F04786B00746114645
:100C9C0002A808F07AFA044600284AD108F0F5FABE
:100CAC0081468A464FF48065002102A808F07BFA41
:100CBC00002842D102A808F088FA804600283ED1CC
:100CCC00013DF1D108F0E1FA484571EB0A0304F556
:100CDC008064E7D31B4BB0EB090561EB0A069D4220
:100CEC0076F10003DED3184B2246384617490093A1
:100CFC00434608F0AAF9164B2A4638461549009384
:100D0C00334608F0A2F914482A463346A4FB0001E6
:100D1C00FFF7AEFB0B4611490246009138461049CD
:100D2C0008F093F90F4B87F80C803B6106B0BDE8D7
:100D3C00F0870D4B4FF00108F5E70C4BFAE70C4B25
:100D4C00F8E700BF80969800FAB5000029B30000C0
:100D5C003CB3000034B3000040420F003FB300002E
:100D6C00DEB2000005B30000B0B30000EFB200002B
:100D7C00D2B100002DE9F04788B00746002103A846
:100D8C0008F02BFA044600284AD108F07EFA814676
:100D9C008A464FF48065002103A808F026FA002843
:100DAC0042D103A808F033FA804600283ED1013D19
:100DBC00F1D108F06AFA484571EB0A0304F5806436
:100DCC00E7D31B4BB0EB090561EB0A069D4276F1AC
:100DDC000003DED3174B224638461749009343468F
:100DEC0008F033F9154B2A4638461549009333461B
:100DFC0008F02BF913482A463346A4FB0001FFF7F1
:100E0C0037FB0B4610490246009138460F4908F053
:100E1C001CF90F4B87F80C803B6108B0BDE8F087DC
:100E2C000C4B4FF00108F5E70B4BFAE70B4BF8E7CF
:100E3C0080969800FAB5000029B300003CB300007E
:100E4C0034B3000040420F003FB30000DEB200009C
:100E5C0087B300004DB3000061B3000073B3000012
:100E6C002DE9F041C2B010AD00210446284608F02F
:100E7C00B4F90146002860D104AF0122384608F0CD
:100E8C0084F9014600285AD108AE0122304608F0F8
:100E9C007CF90146002854D10DF13008012240465E
:100EAC0008F073F900284ED140F206630222ADF827
:100EBC0064304FF48063CDE90132294B294A009309
:100ECC00294915AB1AA8CDE91557CDE9176800F0DB
:100EDC00BBF9002839D141F28831384608F063F962
:100EEC00002834D19DF86430002B32D1284608F00C
:100EFC008EF90546304625B908F067F91B4B0126DB
:100F0C0016E008F062F941F28831404608F04BF9DE
:100F1C0008BB9DF8656006BB1AA808F028F9144BAD
:100F2C002A46009320460023124908F08EF8124BF3
:100F3C002673236142B0BDE8F081104BDFE7104B04
:100F4C00DDE7104BDBE7104BD9E7104BD7E7104B25
:100F5C00D5E7104BD3E7104BD1E7104BCFE700BFD1
:100F6C0008220020D3900000BFB4000037B400006A
:100F7C00D9B40000CFB400009FB400004DB3000002
:100F8C00A9B30000C8B3000093B10000E8B300009F
:100F9C0003B400001CB4000058B400006DB4000091
:100FAC0010232DE9F04F97B007461A463E490BA87F
:100FBC0008F038F9054600286BD10146102203A829
:100FCC0009F050F81022294607A809F04BF808F050
:100FDC005CF981468A46DFF8D4B02C4684EA0B03D0
:100FEC000493334B0022E3180593324B03A90BA84F
:100FFC000394069308F021F9024600284DD107A965
:10100C000BA808F02EF98046002848D1102207A919
:10101C0003A809F00AF8002843D1013405F58063D0
:10102C009C42DBD108F031F9484571EB0A032ED311
:10103C00214BB0EB090561EB0A069D4276F10003EA
:10104C0025D31E4B224638461D490093434607F0D4
:10105C00FCFF1C4B2A4638461B490093334607F0CD
:10106C00F4FF1A482A463346A4FB0001FFF700FAA6
:10107C000B461749024600913846164907F0E5FF22
:10108C00154B87F80C803B6117B0BDE8F08F2546F7
:10109C00A3E7124B4FF00108F3E7114BFAE7114BA2
:1010AC00F8E7114BF6E700BF000D0020785634121C
:1010BC0000EFCDABAA55AA5580969800F0B500006C
:1010CC0029B300003CB3000034B3000040420F00D1
:1010DC003FB30000DEB20000CEB500007CB50000CE
:1010EC0090B50000A2B50000B7B500002DE9F04F97
:1010FC0085B0044608F0C9F880460A20894608F0F5
:10110C002FF8054608F0C1F806460F46002D4BD1C6
:10111C00404571EB090344D3B0EB080B61EB0903B9
:10112C000393264BDFF898A00A222046254900930A
:10113C00002307F08AFF4FF47A72002320462249DD
:10114C00CDF800A007F081FF42F210720023204678
:10115C001E49CDF800A007F078FF42F22832002398
:10116C0020461B49CDF800A007F06FFF46EA0806A1
:10117C005A462046039B1749CDF800A047EA0907B9
:10118C0007F063FF3E4312D042F228339B45039B8A
:10119C0073F100030ED3104B2573236105B0BDE82A
:1011AC00F08FAB460395BCE701250C4BF4E7042507
:1011BC000B4BF1E701250B4BEEE700BFC6B6000069
:1011CC003CB30000BCB60000CCB60000D4B60000A6
:1011DC00DFB6000034B30000A7B6000036B600003E
:1011EC004AB6000072B6000000487047A8AD000077
:1011FC0038B50D460446D0B10E4B1B7873B90E4969
:10120C0040F246330D4A0E4808F0FFF80D4808F03E
:10121C00FCF840F24631094808F0EEF805F0C0FF42
:10122C00002105F0EDFD2846A047002038BD022026
:10123C00FCE700BF030E00204DB7000022B70000F2
:10124C0060B700007DB70000F0B589B01546DDE948
:10125C000E1204469DF84060F8B1F5B1E9B1E2B167
:10126C00042EC0E9255396BF0D4B07209857002339
:10127C0000260027CDE90303CDE901332046CDE953
:10128C000667084B009405F0E9F80028C4F89000B4
:10129C000CBF0620002009B0F0BD0220FBE700BF08
:1012AC009FB7000047910000002108B50348FFF7E5
:1012BC009FFF003818BF0120404208BD81900000FC
:1012CC000048704740420F00024618B111B1024865
:1012DC0008F06EB8704700BFB2B700000048704706
:1012EC00B7B7000000487047C3B70000B2F5802FB5
:1012FC002DE9F04110D2042A28D8454940F21A238E
:10130C00444A454808F081F8444808F07EF840F219
:10131C001A21404808F070F80823D21ACC1D114449
:10132C0024F0070421F00701091B17294FEAD10605
:10133C000ED83B4940F22323364A374808F065F86B
:10134C00364808F062F840F22321E2E70423E4E790
:10135C000025046031462046A660E56007F0D5FF05
:10136C00B6F5004F2CBF08230423421D920008330E
:10137C00D11DDB0803EBD103B3424FEAD10739D8B7
:10138C0001302946A2F1100204F11000B8BF2A4620
:10139C0008F068FE3A462946204607F0B2FF2B4675
:1013AC002A462946204607F083FFA6EB070820466D
:1013BC002946012207F08DFF4246394607F0A1FF6E
:1013CC003B462A463946204607F072FF31462046F6
:1013DC0007F097FF43462A463146204607F068FF40
:1013EC0031462046012207F074FF3946BDE8F04132
:1013FC0007F09ABF0B494FF40E73064A064808F0E3
:10140C0004F8064808F001F84FF40E7181E700BFAC
:10141C00B1B80000E3B7000060B70000D2B800001C
:10142C00EBB8000014B90000014B1B68184700BF53
:10143C00F0000020014B1860704700BFF000002046
:10144C0007B50B46002102460091034800F090F8C6
:10145C0003B05DF804FB00BF35140000044608B56A
:10146C00084611461A46A0470A4B1B7873B90A491D
:10147C0040F24633094A0A4807F0C7FF094807F00B
:10148C00C4FF40F24631054807F0B6FF05F088FE70
:10149C0001F018FA030E00204DB7000022B700002F
:1014AC0060B700007DB70000F0B5024601680A275E
:1014BC000020074E0B461C780131355D6D0701D4B9
:1014CC001360F0BD07FB0043A3F13000F2E700BF4F
:1014DC00D6D200002DE9F84F15469A46D378234A08
:1014EC006F2B12F803B081460F460BF0030B2BD079
:1014FC0026D8582B0CBF10260A26DDF82880324639
:10150C00002348463946FEF7B3FF092A08F1FF3895
:10151C00D4B21ED83034B145E4B277F1000788F864
:10152C00004001D3D04511D82B789B0605D5082E49
:10153C0015D1AB7843F00803AB704046BDE8F88F8B
:10154C0003F0F703702BD5E70826D6E781460F4644
:10155C00D5E7BBF1010F0CBF37345734DBE7102E46
:10156C00EBD1AB7843F01003E6E700BFD6D2000016
:10157C002DE9F04F8A4616461C46002597B003907D
:10158C00307808B9284655E325280AD05146039BE4
:10159C0098470028C0F24E83731C01350493049EB7
:1015AC00EEE71822002110A808F05CFD7378252BBB
:1015BC0000F0A380002398469E469C461846711C5A
:1015CC000F4611F8012B2B2A00F0C68000F2BD80CB
:1015DC00202A00F0C480232A00F0C4802BB19DF88F
:1015EC00483043F040038DF84830B8F1000F05D077
:1015FC009DF8483043F020038DF84830BEF1000FC1
:10160C0005D09DF8483043F010038DF84830BCF1FC
:10161C00000F05D09DF8483043F008038DF8483092
:10162C0028B19DF8483043F004038DF848309DF8FC
:10163C00483003F04401442903D16FF386138DF82D
:10164C0048309DF848302A2A43F0800309978DF8DA
:10165C00483040F08C809DF8493043F001038DF800
:10166C0049307B1C1A782E2A0CBF012100219DF8D1
:10167C00492061F341028DF849200CD15A1C099282
:10168C005A782A2A40F083809DF84920023342F090
:10169C0004028DF849201A786C2A00F0A48000F21C
:1016AC008680682A00F08C806A2A00F0A5804C2A7B
:1016BC0000F0AA801A4612F8013B782B04928DF8A0
:1016CC004B309DF8492000F217816D2B00F2A98058
:1016DC00692B00F21181572B00F2BE80412B03D0F5
:1016EC00453B022B00F2088104229DF84A3062F33C
:1016FC0002038DF84A300123CAE08DF84B30B31C3D
:10170C0004939DF84930D90740F1FD8054F8048BBF
:10171C00B8F1000F07DA9DF84820C8F1000842F034
:10172C0004028DF848205A0740F1F68054F804BBA7
:10173C00BBF1000F80F2F5809DF849306FF3410347
:10174C008DF849304FF0FF3BEBE02D2A0DD0302ABD
:10175C007FF444AF012333E74FF0010C30E74FF037
:10176C00010E2DE74FF001082AE7012028E709A810
:10177C00FFF79AFE099BBB423FF474AF9DF84820DB
:10178C001390C00F60F341028DF848206AE709A856
:10179C00FFF78AFE9DF848301490C3F3400242EAEA
:1017AC00D07262F341038DF84830099B73E7742AB9
:1017BC0026D07A2A7FF47EAF06219DF849200CE0D2
:1017CC005A78682A9DF8492006D1012161F3C60296
:1017DC008DF8492002336DE7022161F3C6028DF8C2
:1017EC004920013366E75A786C2A9DF8492001D1CB
:1017FC000421EBE70321F0E705219DF84920ECE7F4
:10180C0007219DF84920E8E7BDF8482022F4F04272
:10181C0022F0020242F4804242F00202ADF848206B
:10182C00DFE76E3BD9B201238B4040F282410B4281
:10183C0038D113F0240F52D1DF075DD503219DF869
:10184C004A3061F302038DF84A3002F07803A3F1B9
:10185C004000434243411BE00120A3F15801C9B2AF
:10186C0000FA01F111F4624F7FF43EAF40F601072C
:10187C0039421DD111F4043F3ED09DF84A3060F33B
:10188C00020302F07802402A8DF84A3034D000234B
:10189C009DF84820C2F340010B4363F341028DF8DD
:1018AC0048202EE702219DF84A3061F30203E8E755
:1018BC0002209DF84A1002F0780260F30201402ADF
:1018CC008DF84A1002BF9DF8481041F001018DF8C7
:1018DC004810632BDBD1131E18BF0123D8E703215B
:1018EC009DF84A3012F0780F61F302038DF84A30FC
:1018FC0014BF01230023CBE79DF8483043F00103CC
:10190C008DF84830C3E79DF94820002AACBF4FF052
:10191C00FF38DDF84C8006E79F077FF513AFDDF845
:10192C0050B00023CDE913339DF84A309DF849108F
:10193C0003F00703012BC1F3C30132D1CB1E042BDF
:10194C0004D8DFE803F02045452020002368012956
:10195C004FEAE372CDE910321BD19DF94030DA1712
:10196C00CDE9103204349DF8483013F003074FD002
:10197C0032465146049B039807F027FD0028C0F21D
:10198C00598105440BE654F8043BDA17CDE91032C3
:10199C00E9E70229E6D11AB243F3C033CDE91023AB
:1019AC00E0E7022B24D1CB1E042B04D8DFE803F094
:1019BC0018101018180001294FF0000254F8043BBD
:1019CC0014D00229CDE91032CDD19BB21093CAE7C5
:1019DC00073424F00704F4E80223CDE91023C2E70E
:1019EC0054F8043B109300231193BCE7DBB2CDE712
:1019FC00042B08D1073424F00704D4E9002308345D
:101A0C00CDE91023AFE7032BADD154F8043BDDE750
:101A1C009DF84B0078283FF6C2AD62281ED82528C9
:101A2C0050D058287FF4BBADDDE910010DF13E0319
:101A3C00009312AA0AABFFF74DFDBBF1000F8146D4
:101A4C0080F2C180B9F1000F3FF4A9AD0DF13E0653
:101A5C00A6EB0903002F7BD0013379E063381528FE
:101A6C003FF69DAD01A252F820F000BF4B1B0000C9
:101A7C00A91B0000AB150000AB150000AB15000056
:101A8C00AB150000A91B0000AB150000AB15000046
:101A9C00AB150000AB150000F51B0000CD1B0000C2
:101AAC00091B0000AB150000AB150000E11A00008B
:101ABC00AB150000CD1B0000AB150000AB150000F2
:101ACC00CD1B00005146039B98470028C0F2B28002
:101ADC00013564E5BBF1000FDDF840900ADB594697
:101AEC00484608F0C7FAB9F1000F3FF458AD09EBBE
:101AFC00000620E04846FEF7D5FCF8E710980028D1
:101B0C0000F086800DF13E060AAB0021009612AA69
:101B1C00FFF7E0FCBDF84A30BBF1000F03F0EF0318
:101B2C0043F4F04343F010038146ADF84A3049DAF0
:101B3C0000283FF434AD0027A6EB090308E0109B06
:101B4C0000278DF8283001230DF129060DF1280905
:101B5C009DF84A1011F0100206925FD00233139ACE
:101B6C00134405924A0644BF14995B18B8F1000F50
:101B7C006DDDA8EB03089DF848305807C3F3800BC4
:101B8C0065D4590659D53FB151463846039B984701
:101B9C0000284FDB5F46013530234FE01E075ABF4C
:101BAC00C3F300135F012B27DDE91023002BBFF6D5
:101BBC003BAF524263EB43032D27CDE9102333E7B0
:101BCC00002731E700279DF848100DF13E03A3EBE9
:101BDC0009036FF386119B458DF848107FF632AFE1
:101BEC00ABEB030313932DE7109B07293FF6D7AC00
:101BFC00DFE801F00C04060C08080C0C1D70CEE498
:101C0C001D80CCE4EA17C3E90052C8E41D60C6E4A9
:101C1C00304E07460523A6F1050999E7080748BF8A
:101C2C0001339CE7184607935146039B98470028BD
:101C3C00079B04DA17B0BDE8F08F2023C346594642
:101C4C0000290BF1FF3BEDDC4544D8466D1A37B14A
:101C5C0051463846039B98470028EBDB01359DF82D
:101C6C004A30DA0601D41B0706D551463020039BB7
:101C7C0098470028DEDB0135069B3BB151469DF8A9
:101C8C004B00039B98470028D4DB0135059F2F445C
:101C9C0006E051463020039B98470028CADB0135EB
:101CAC007B1B002BF5DC33464A465146039807F064
:101CBC008CFB0028BEDB0544A844A8EB0503002BD5
:101CCC007FF76DAC51462020039B98470028B1DB71
:101CDC000135F2E744B900002DE9F84F0446A38B17
:101CEC0008461907154612D4022803F0070165D1DE
:101CFC00204607F097FB88B10138042800F23781A1
:101D0C00DFE810F05C0035018200D40004010128EA
:101D1C000CBF43F0100143F02001A1831434204682
:101D2C0005F0D4FB002840F09D819A494FF49A733A
:101D3C00994A9A4807F069FB2146B1E003F0070283
:101D4C00501F01281ED80020062A2768C4E900006D
:101D5C0014D13A4603E0E08B0130E0831268002A8C
:101D6C00F9D123F0070343F002022046A28307F0C7
:101D7C0059FB90B342F02002A2832EE023F007031C
:101D8C009AB2F2E7042A33D123F007039AB2204621
:101D9C00A28307F047FB10B142F02002A283A38B71
:101DAC0003F00709894540F0EC80A18BCA0640F18D
:101DBC00508121F01003A38301F00701D4F818809F
:101DCC00A38BB8F1000FB9DA0022276823F00703C0
:101DDC00C4E9002243F00103A383A38B03F007099A
:101DEC00894540F0CF80002FDFD00026B24644E07A
:101DFC006B4940F21B136B4A684807F006FB40F234
:101E0C001B11684807F0F8FA49B167494FF4AB73F6
:101E1C00644A624807F0F9FA4FF4AB71F1E72368B2
:101E2C004BB9624940F257135E4A5C4807F0EDFA31
:101E3C0040F25711E5E723691E684EB95C494FF42F
:101E4C00AD73584A554807F0E0FA4FF4AD71D8E736
:101E5C000F4688464FF00609A38B23F0070343F087
:101E6C0006039BB2A383A268002A40F08D80002F4A
:101E7C0040F08D80002E98D0BA4643F0080304F150
:101E8C00140B5846A38305F021FB002840F09A80E0
:101E9C0040494FF49A73404A404807F0B6FA594605
:101EAC00444807F0B2FA4FF49A71ADE0022909D018
:101EBC00414940F25D133B4A384807F0A6FA40F21C
:101ECC005D119EE7E78B4FB13C494FF4AF73354A38
:101EDC00324807F09AFA4FF4AF7192E723695E68C3
:101EEC004EB9334940F261132E4A2C4807F08DFA53
:101EFC0040F2611185E7A38BB84623F0070343F04A
:101F0C0004039BB24FF00409A383ACE7012909D069
:101F1C002B494FF4B273234A204807F076FA4FF45A
:101F2C00B2716EE723684BB9204940F265131D4A24
:101F3C001A4807F06AFA40F2651162E723699E6855
:101F4C004EB91B494FF4B473164A144807F05DFAA6
:101F5C004FF4B47155E70027A38BB84623F0070361
:101F6C0043F005039BB24FF00509A3837BE70C49B3
:101F7C0040F26B130B4A094807F047FA40F26B1119
:101F8C003FE7002700266EE74FF0010A75E79246FF
:101F9C0073E700BF18BA0000EBB9000060B700008F
:101FAC0073C9000045B900006AB9000076B9000099
:101FBC0099B900002FBA0000B0B90000C6B90000F2
:101FCC00D5B9000085F31188BFF36F8FBAF1000FFC
:101FDC001CD177BB16B120462549B047EFF31185CC
:101FEC00202383F31288BFF36F8F584605F060FAF5
:101FFC0038BB88231F4A2049204807F006FA594667
:10200C001F4807F002FA88211A48FBE6A16800294C
:10201C00DFD00D680029DCD043464A462046D1F873
:10202C0004A0D0471DB12B6829461D46F2E72B466C
:10203C00FAE7394643464A4620463F6807F01EFAFF
:10204C00C7E7584605F058FAA38B23F00803A3837F
:10205C00ABE68B067FF562AE21F02003A38301F083
:10206C00070145E685F31188BFF36F8FBDE8F88F44
:10207C0091200000EBB9000044BA000060B70000EA
:10208C0059BA0000F8B504460D4600F11406EFF3FA
:10209C001187202383F31288BFF36F8F304605F02E
:1020AC0007FA68B988230C4A0C490D4807F0ADF9BA
:1020BC0031460C4807F0A9F98821074807F09CF92C
:1020CC00304605F019FAA5613A462046BDE8F840BD
:1020DC000121FFF701BE00BFEBB9000044BA0000BC
:1020EC0060B7000059BA00002DE9F04704460F46CE
:1020FC0007F0B4F9051E68DB04F11409EFF3118A3B
:10210C00202383F31288BFF36F8F484605F0D0F974
:10211C00804660B98823384A3849394807F075F940
:10212C004946384807F071F98821334842E048465F
:10213C0005F0E2F94FF6FF72E38BA68B934206F0A3
:10214C00070645D0022E15D135460133E3834846A8
:10215C0005F0BCF9002841D14FF49A73264A2A495C
:10216C00274807F052F94946284807F04EF94FF432
:10217C009A71DAE7062E13D8DFE806F0092D121251
:10218C00090409006FF085054FF00008DFE7002314
:10219C003B60636883B9C4E9007786B13546F3E7E1
:1021AC001B4917484FF4E4731A4A07F02EF94FF401
:1021BC00E471184807F020F91F606760EDE752469C
:1021CC0002212046FFF788FD35462846BDE8F087FA
:1021DC006FF00A05D8E76FF00405D5E78AF311888C
:1021EC00BFF36F8FB8F1000FEFD0002332463946A2
:1021FC00204607F043F9E8E7EBB9000044BA0000C9
:10220C0060B7000059BA000018BA00002FBA0000DD
:10221C00D5B9000045B9000008B54268034602F084
:10222C000302032A816002D02AB1002000E000687A
:10223C0000225A6008BD054905484523054A07F0A8
:10224C00E4F84521034807F0D7F800BF73C9000034
:10225C0060B700006FBA0000014B036000207047AC
:10226C00C0AD000008B5044807F0A2F8034807F019
:10227C009FF8002008BD00BF95BA0000CABA000044
:10228C0008B50348034A0021121A07F032F908BDB9
:10229C0038030020040E0020074808B5074A0849F7
:1022AC00121A07F028F9BDE808400648064A074903
:1022BC00121A07F020B900BF60000020380300207C
:1022CC000CD4000060000020600000200CD4000042
:1022DC0038B505460C4699B1D1E901230F48096878
:1022EC0007F066F8D4E90423E1680D4807F060F8BC
:1022FC00E1690C4807F05CF8A1690B4807F058F845
:10230C00012D05D1EFF305810848103907F050F87D
:10231C0021462846BDE8384003F0BEB9F8BA0000A3
:10232C0028BB000058BB000068BB000097BB000036
:10233C0030BFFFF7FDBF00BF054B5A699B689A423F
:10234C001FBF044A536843F08053536004F006B82F
:10235C008406002000ED00E010B5204C204807F06A
:10236C0027F8A36A990137D51E4807F021F81E20DB
:10237C00A36ADA0103D51C4807F01AF81F20174C82
:10238C00A36ADB0203D5194807F012F80220A36AEE
:10239C001C0303D5164807F00BF821200F4CA36A39
:1023AC00590303D5134807F003F82220A36A9A03B4
:1023BC0003D5114806F0FCFF2320084CA36ADB036D
:1023CC0003D50E4806F0F4FF2420A36A6FEA0343FA
:1023DC006FEA1343A36210BD1D20C9E700ED00E0B6
:1023EC00ABBB0000C4BB0000D8BB0000F3BB0000BB
:1023FC001EBC00003DBC000063BC00007EBC0000A5
:10240C0070B5244C064624480D4606F0D1FFA36A4D
:10241C00D90435D5214806F0CBFF1720A36A1A053D
:10242C0003D51F4806F0C4FF18201A4CA36A9B055D
:10243C000FD51C4806F0BCFFA16BA36A180407D586
:10244C00194806F0B5FF1EB1A36A23F40043A3623A
:10245C001920104CA36A590503D5144806F0A8FF9F
:10246C001A20A36ADA050DD5114806F0A1FF1B202E
:10247C00084A936A43F47F43936200232B7070BD28
:10248C001620CBE7A36A9B04F2D50A4806F090FF0E
:10249C001C20EDE700ED00E0AABC0000C1BC000070
:1024AC00D3BC0000E7BC000001BD000017BD00005C
:1024BC0033BD00004CBD000070B5304C06463048B2
:1024CC000D4606F075FFA36AD90646D52D4806F0D1
:1024DC006FFF1120A36A1A0703D52B4806F068FF7B
:1024EC001220264CA36A9B070FD5284806F060FFE4
:1024FC00616BA36A180607D5254806F059FF1EB173
:10250C00A36A23F08003A36213201C4CA36ADA078E
:10251C0003D5204806F04CFF1420A36A9B0603D574
:10252C001D4806F045FF1520144B9A6AD60602D4B6
:10253C009A6A940713D59B6AD90610D5174940F2AD
:10254C002D13174A174806F060FF174806F05DFF79
:10255C0040F22D11124806F04FFF1020BAE7074B3E
:10256C009A6A920642BF5A6A22F400525A629A6AD6
:10257C0042F0FF029A6200232B7070BD00ED00E068
:10258C007CBD000093BD0000D3BC0000C7BD0000A3
:10259C00E0BD0000F7BD00004CBD000049BE0000CE
:1025AC0017BE000060B7000093BE0000F0B56F4B83
:1025BC000446586800258BB0C0F3080385F31188D6
:1025CC00BFF36F8F02F07F46B6F17F4F06D102F05A
:1025DC000C06082E11D1664806F0EAFE654940F259
:1025EC001443654A654806F010FF654806F00DFF78
:1025FC0040F21441604806F0FFFE16074CBF0C4633
:10260C000125002CEAD00026DA1E8DF80760092A75
:10261C0000F29A80DFE802F0058E927198989898F3
:10262C009896584806F0C4FE8DF807604F4EF36A32
:10263C009A0704D5544806F0BBFE002326E0F36A43
:10264C00002B01DA5148F6E7F36A5B0065D5504878
:10265C0006F0AEFE7369A26943F480737361BFF335
:10266C004F8FBFF36F8F736932F8022C23F4807392
:10267C007361BFF34F8FBFF36F8F4DF602739A42A6
:10268C0023D12168434806F093FE23689DF8072068
:10269C00CAB902AE04F120073246206861680834DA
:1026AC0003C2BC421646F7D1099A002D58D0C2F38A
:1026BC00080121B96FEA52226FEA422209921846A8
:1026CC0002A9FFF705FE0BB0F0BDB36ADBB233B164
:1026DC0001200DF10701FFF7EFFE0346D6E7B36AC1
:1026EC0013F47F4F05D001200DF10701FFF788FE91
:1026FC00F3E7B36AB3F5803F02D3FFF72DFEECE7A7
:10270C00254940F2ED231C4A1C4806F07EFE234866
:10271C0006F07BFE40F2ED216CE71F494FF43C7351
:10272C00154A164806F071FE1D4806F06EFE4FF471
:10273C003C715FE700200DF10701CCE700200DF1A3
:10274C000701D3E7174876E7A3F11002164B10F4F4
:10275C00F87F1649164818BF194606F029FE6CE793
:10276C0022F4FF7222F00102A8E700BF00ED00E0A6
:10277C0025BF000051BF000017BE000060B700006D
:10278C0064BF0000A2BF0000BABF0000DCBF0000A5
:10279C00EBBF00000BC0000073C9000028C0000094
:1027AC004CC000007CC000000CBF0000F7BE000055
:1027BC00A1C00000064B5A6942F010025A615A69D6
:1027CC0042F480625A615A6922F008025A617047D9
:1027DC0000ED00E0EFF30880EFF3098101B57246DC
:1027EC00FFF7E4FE01BD00BF002080F31488BFF3A7
:1027FC006F8F002080F30A8880F30B88124880F3D7
:10280C00088801F0BFFB002010490860BFF34F8F10
:10281C0000F032F8202080F311880D484FF0AA0107
:10282C004FF4006206F065FE09484FF40061401851
:10283C0080F30988EFF314800221084380F3148895
:10284C00BFF36F8F00F004F90838002094ED00E01E
:10285C0008260020002318460649D1F89020C2F320
:10286C000722934200DB7047C1F89830C1F8A000F2
:10287C000133F6E700ED00E010B572B6002484F3E6
:10288C001388FFF7E7FF23464FF0FF300C4A03F1A4
:10289C0020010133102B42F82100F8D100234FF016
:1028AC00FF30074A03F160010133102B42F821007D
:1028BC00F8D162B6BFF34F8FBFF36F8F10BD00BF5F
:1028CC0000E100E0084B9B6883420BD1EFF30583DA
:1028DC0043B1064B5A6842F080525A605A6A22F44D
:1028EC0000425A6204F062BC8406002000ED00E055
:1028FC0014498A684FF030001044EFF3098C80E8DB
:10290C00F01F202080F31288BFF36F8F0E4F4FF013
:10291C0000664A698A603E60D2F884000023C2F8DF
:10292C00843080F3118802F1300090E8F01F8CF3B2
:10293C00098802F1000004B506F0EEFDBDE8044084
:10294C00704700008406002004ED00E01EF0040F28
:10295C000CBFEFF30880EFF30980816911F8021CBA
:10296C000229FFD001B5724606F0C7FD01BD00BFBC
:10297C0000B2002807DB01234109034A00F01F00C5
:10298C00834042F82130704700E100E000B200289B
:10299C000CDB01220649430900F01F008240203362
:1029AC0041F82320BFF34F8FBFF36F8F704700BFE9
:1029BC0000E100E0054B420953F82220012300F00E
:1029CC001F0003FA00F01040704700BF00E100E068
:1029DC0038B54B1C072B04460D460FD96B23104AF8
:1029EC001049114806F011FD2946104807232246CC
:1029FC0006F00BFD6B210A4806F0FEFC00B2002825
:102A0C00ACBF00F160400A4A4FEA4313DBB2ABBFE4
:102A1C0000F5614000F00F0080F80033135438BD0E
:102A2C00B5C00000ECC0000060B7000007C100009A
:102A3C0014ED00E0044B054A23F07F039360BFF3D1
:102A4C004F8FBFF36F8F70470000000000ED00E068
:102A5C0008B5FFF7EFFF074AD2F8883023F470036C
:102A6C00C2F88830FFF70CFCFFF716FC00F040F8BA
:102A7C0002F028FF00ED00E042F8203C009B0B49DF
:102A8C0042F81C3C019B21F0010142F8183C029BCE
:102A9C0042F8081C42F8143C4FF0807342F8043C96
:102AAC000023203A0265C0F8843070476914000096
:102ABC0000B50B4B0E4698601546436F83F30B889D
:102ACC002C4686F309880020034B984720460021AA
:102ADC0000220023014C20473395000069140000AC
:102AEC00840600201022014B1A61704700ED00E0B3
:102AFC000023202040F20F1210B5044CE1180133D2
:102B0C00934281F80003F9D110BD00BF00E100E051
:102B1C0008B5EFF30583064A103B02EBC30152F8EC
:102B2C00330049688847BDE80840FFF705BC00BF83
:102B3C0030A400001FB5094C094A2346012109485D
:102B4C0000F0FAF800230393074B0121E41A01A8C3
:102B5C000193029400F014F904B010BD00F00220AF
:102B6C0000000020C0AD00003803002010B50C7A26
:102B7C000B6804F01F0223F01F031A43CB6864098F
:102B8C0023F01F03054943EA440343F00103C1F852
:102B9C009800C1F89C20C1F8A03010BD00ED00E0F9
:102BAC0010B5074BD3F89030C3F30723013B984281
:102BBC0002D8FFF7DBFF10BD6FF01500FBE700BF7D
:102BCC0000ED00E02DE9F04F0F46144606464FF09D
:102BDC0000084D4D85B0B84580F29280D6F804902F
:102BEC00B9F1000F36D0B9F11F0F40F2878019F000
:102BFC001F0F40F08380D6F800A01AF01F0F7DD174
:102C0C00504606F0B3FC834609EB0A00013806F087
:102C1C00ADFC834572D11BF1160F6FD05C456DDD99
:102C2C00C5F898B0D5F89C10C5F898B0D5F8A03078
:102C3C0021F01F0143F01F0AD6E900321A449942D1
:102C4C0002F1FF391ED1CA4508D131465FFA8BF02B
:102C5C0006F095FC08F101080C36BCE73146C5F8C6
:102C6C0098B0D5F89C3022F01F0203F01F031343D9
:102C7C00C5F89C30E0B206F082FC10F1160F3DD086
:102C8C00441CE7E7C5F898B0D5F8A020013B23F029
:102C9C001F0302F01F021343CA453146E0B2C5F8C8
:102CAC00A030E8D006F06BFC10F1160F26D0C5F85A
:102CBC0098B0D5F89C209DF808300AF1FF3A62F3E1
:102CCC0004038DF80830D5F8A0309DF808205B0877
:102CDC0063F347128DF80820D6E9003213440093B1
:102CEC0023F01F035344A3EB0903013023F01F030C
:102CFC006946C0B20393FFF753FFBEE76FF01504AC
:102D0C00204605B0BDE8F08F00ED00E00522044B35
:102D1C00C3F89420BFF34F8FBFF36F8F704700BF82
:102D2C0000ED00E0BFF35F8F0022024BC3F894204C
:102D3C00704700BF00ED00E038B50C4D0C462A780A
:102D4C00FFF740FF287016300FD14FF4C473084AB8
:102D5C000849094806F059FB2146084806F055FB7E
:102D6C004FF4C471024806F047FB38BD000E00203A
:102D7C0047C1000073C9000060B7000076C10000B5
:102D8C002DE9F74F314E894605464FF00008B34602
:102D9C002F4FC84502DB03B0BDE8F08FD5F804A077
:102DAC00BAF1000F4CD029680846019106F0DEFB01
:102DBC00019904460AEB0100013806F0D7FB844266
:102DCC004FF01402234B15D002FB08F36FF01502E1
:102DDC004BF803204FF4CC731F4A2049204806F0CF
:102DEC0014FB49461F4806F010FB4FF4CC711A48EF
:102DFC0006F002FB14F1160F3460EBD01978A142E7
:102E0C00E8DD02FB08B0C7F89840C7F89840D7F83F
:102E1C009C4000F10801007B64F304000871D7F8B2
:102E2C00A0000C79400860F347140C71D7F89C1083
:102E3C0021F01F017160D7F8A01021F01F01316142
:102E4C0008F1010814360C35A3E700BFB4050020C7
:102E5C0000ED00E0000E002047C1000073C9000027
:102E6C0060B70000A2C100002DE9F041694C6A4E28
:102E7C00D4F890303568C3F307239D4286B013D93C
:102E8C0040F20123654A6649664806F0BEFAD4F85A
:102E9C00902029466448C2F3072206F0B6FA40F2A5
:102EAC0001215E4806F0A8FA0020FFF73BFF5F4BBC
:102EBC00C4F8C03085421BD15D4C01A82570FFF7CA
:102ECC00CBF9002506464FF006085A4FAE4216D1F4
:102EDC00002023784F49D1F89020C2F30722934267
:102EEC00C0F292800020FFF711FF06B0BDE8F08120
:102EFC00716801EB0011FFF739FE0130DAE7019A36
:102F0C00290102EB0513D3F80CC00CEA0700B0F54D
:102F1C00800F47D007D8B0F5801F17D0B0F5001F31
:102F2C0023D00135D2E7B0F1006F5CD0B0F1805FF7
:102F3C00F7D158689B685258013B20F01F010B4495
:102F4C00CDE9020223F01F0301220BE0586852580E
:102F5C009B68CDE902022122013B20F01F010B44AA
:102F6C0023F01F038DF8102029E0586852589B68F5
:102F7C00CDE902024122013B20F01F010B4423F05A
:102F8C001F031CF0010F8DF81020059318D02A494F
:102F9C008323224A234806F038FA284806F035FAEB
:102FAC0083217EE7586852589B6820F01F01013B33
:102FBC00CDE902020B4423F01F038DF8108005931A
:102FCC00207802A9FFF7ECFD002819DA144940F229
:102FDC002B23124A134806F018FA194806F015FA72
:102FEC0040F22B215DE758689B685258013B20F05A
:102FFC001F010B44CDE9020223F01F036122B1E74C
:10300C002378013323708CE7C1F89830C1F8A00005
:10301C00013360E700ED00E0CCAD000047C10000DB
:10302C0073C9000060B70000D1C10000AAFF4400C2
:10303C00000E00200000F0FF05C200002BC20000B3
:10304C005AC2000008B50B4BC3F1005303F53C33D7
:10305C00B3F5006F0CD208499223084A084806F0D1
:10306C00D4F9084806F0D1F99221044806F0C4F9C5
:10307C00002008BD08380020C3C2000093C2000025
:10308C0060B700000BC30000014B1860704700BF15
:10309C00F400002010B5074C2368C2180648C0F194
:1030AC00005101F53C318A4236BF22604FF0FF30AF
:1030BC00C01810BDC80500200838002010B558B93C
:1030CC0009490A4840F2C713094A06F09EF940F232
:1030DC00C711074806F090F94FF0FF32BDE81040D9
:1030EC004FF0FF3302F082BE93C3000060B70000C4
:1030FC0093C2000008B558B90749084840F2E313D9
:10310C00074A06F082F940F2E311054806F074F91B
:10311C00BDE8084002F03ABF93C3000060B700005E
:10312C0093C2000008B5244A244B1A6000F060F8E2
:10313C004FF47A612248D0F82436C3F30802C3F363
:10314C0009434B4382F480721E49883201FB0233DF
:10315C004FF4FA215B00B3FBF1F201FB12331A4975
:10316C00B3F57A3F28BF0132C1F80429D0F82036D4
:10317C004FF47A60C3F30802C3F30943434342F2AA
:10318C001C5082F4807202F2172200FB02334FF4BF
:10319C007A701B0AB3FBF0F200FB12330020B3F57C
:1031AC00FA7F4FF0010328BF0132C1F81C27C1F888
:1031BC000009C1F8003608BD0020A107F401002069
:1031CC0000C0FF00F82A00800000125048B1054BE7
:1031DC00054A1B68B3FBF2F35843044B43F001035D
:1031EC0018477047F401002040420F0020AD00004A
:1031FC000122024BC3F80424704700BF002008E0F2
:10320C0037B540230C460A490093411A491105462B
:10321C002346084A084806F0CEF9011E05DA28466E
:10322C00234603B0BDE83040184703B030BD00BFA3
:10323C00E00500202D960000A4A3000010B5EFF3CC
:10324C001184202383F31288BFF36F8F074A13680E
:10325C0023F00201DB07116002D4012000F0A6FF6D
:10326C0084F31188BFF36F8F10BD00BF38060020A8
:10327C00C9B2012908B509D9084909487E23094A68
:10328C0006F0C3F87E21074806F0B6F80C22036955
:10329C0001FB0233986C00F0070008BD0BC4000062
:1032AC0060B70000CEC3000070B5C9B20129036934
:1032BC000BD9194919484FF4E873194A06F0A5F8C7
:1032CC004FF4E871164806F097F8EFF311852024B7
:1032DC0084F31288BFF36F8F0C2606FB0134A46CA9
:1032EC0014F0C00408D0A24206D085F31188BFF3B5
:1032FC006F8F4FF0FF3070BD012206FB01339A64D3
:10330C0085F31188BFF36F8F436803EBC1035B68D0
:10331C0098470020EFE700BF0BC4000060B7000027
:10332C00CEC3000070B50D4606490446411A49113A
:10333C0040220548FFF7B8FF2B4601462046BDE862
:10334C0070401847E0050020A4A30000F8B5002247
:10335C000121054640F20510FFF73AFB0F4800F03B
:10336C00B1FE0446B8B900F0CDFE2F690C493846C1
:10337C0006F09AF8031E09DB0126BE642D69084984
:10338C0005F1200006F090F8031E02DA1C462046D8
:10339C00F8BD6E65FBE76FF00404F8E7313400000C
:1033AC00F4AD00001FB500220123CDE902236B46CA
:1033BC00084ACDF800D0CDF804D006F02AF9002840
:1033CC0005DB4FF4FA720023684602F04DFF05B09E
:1033DC005DF804FB399600000C22104B014602FBF1
:1033EC000033002030B4D3E910521864EFF311808D
:1033FC00202484F31288BFF36F8F9C6C04F0C004FC
:10340C0044F002049C6480F31188BFF36F8F1DB1EC
:10341C002B4630BC0248184730BC7047E0050020F2
:10342C00A4A3000008B506281CD8DFE800F0252569
:10343C000D0F04252500114B986C10F007001BD1C3
:10344C00BDE80840FFF7C8BF0120F9E70C4940F27E
:10345C00FA230C4A0C4805F0D8FF40F2FA2109482F
:10346C0005F0CAFF06494FF44173064A064805F0B9
:10347C00CCFF4FF44171F2E708BD00BFE00500201E
:10348C0073C90000CEC3000060B7000010B4EFF3A6
:10349C001182202383F31288BFF36F8F16480168C3
:1034AC0041F002040460C80707D482F31188BFF30B
:1034BC006F8F012010BC00F049BE1049D1F80C14DC
:1034CC00C903F2D5EFF3118083F31288BFF36F8F2A
:1034DC000B498B6C03F0C00343F002038B6480F345
:1034EC001188BFF36F8F82F31188BFF36F8F0020A9
:1034FC0010BCFFF771BF00BF3806002000E0105071
:10350C00E00500202DE9F041012206464049D1E8B2
:10351C00EF3FC1E8E02F0028F9D1A3B93D493E485F
:10352C004B60CB608A60FEF7DFFD00280BDA3B496D
:10353C0040F2A3233A4A3B4805F067FF40F2A3212F
:10354C00374805F059FF5EB3731E012B56D8012E78
:10355C0006D1354BD3F8503403F00303012B1FD0A5
:10356C0006F0D5FA0546E8B9304B1B78D3B10422E6
:10357C0007462D4BC3F808232B4CDFF8B480D4F846
:10358C004C24D4F84C34D20315D503F00303012B8F
:10359C0001D0012E0FD165B387F31188BFF36F8F64
:1035AC00BDE8F081EFF31187202383F31288BFF37A
:1035BC006F8F0125E0E7BDB1384605F0C8FFD4F8A0
:1035CC00403413F0FF03DAD1D4F80821002AD6D006
:1035DC00C4F80831D4F8083120220123C4F840344F
:1035EC00C8F8A0212361CAE70021012003F04EFD99
:1035FC00E5E704220C4BC3F80423D1E70D4940F254
:10360C00B523074A074805F000FF40F2B52197E7BC
:10361C00DC050020CC050020000600202FC4000093
:10362C00CEC3000060B7000000E01050030E002075
:10363C0000E100E073C9000008B5074806F01FFA66
:10364C0038B10648FFF720FD0448FDF7F3FE0020D3
:10365C0008BD6FF01200FBE714A400006D360000EB
:10366C000A2838B50446074D04D1AB680D2128460D
:10367C005B689847AB6803485B68E1B298472046A3
:10368C0038BD00BF14A4000010B5036961B920490E
:10369C004F23204A204805F0B8FE204805F0B5FE1F
:1036AC004F211C4805F0A8FE486850B91C4950230E
:1036BC00184A194805F0A9FE1A4805F0A6FE502133
:1036CC00EFE75868F8B1884219D19C680868A142A4
:1036DC00586000D19860002008602AB15A680A60CE
:1036EC009A68596002B99960002010E0814206D1B5
:1036FC000868206098688142EDD19C60EBE7044635
:10370C0000680028F2D1002AE8D16FF0150010BD36
:10371C0081C4000045C4000060B700008AC40000EA
:10372C0099C40000ABC4000008B503685F2B4FEAD6
:10373C00531107D80C4A03F01F0352F82120DA402A
:10374C00D2070BD409490A484FF47473094A05F09F
:10375C005CFE4FF47471074805F04EFE0360064B97
:10376C0053F8210008BD00BF1CAE0000F5C40000DA
:10377C0060B70000C2C4000010AE000070B5446811
:10378C0001F01F05207C86B045EA4015A068002892
:10379C0071D0B2F5001F04D1294601F0F7FA0020D0
:1037AC004DE06068667CB2F5800F46624FF0000613
:1037BC0001A80196466031D1B3F1007F14BF0523F7
:1037CC0004238DF804300023CDE904030393E3684C
:1037DC00CB40D90735D4B2F1A07F32D168460095E1
:1037EC00FFF7A2FF009B203350F82330DB0728D4CF
:1037FC006A462946A06801F04DF9163019D0CDF86B
:10380C0008D02946A06803AA00F0DAFF002816DBCE
:10381C0001222946A06801F037FAC0E7B3F1C06F66
:10382C0005D0B3F1007F14BF01230223C9E70323A2
:10383C00C7E76946A06801F003FA0028DFDA06B092
:10384C0070BD6A462946A06801F024F90028D8D139
:10385C009DF80010A06801F0D3F90028D1D00749D9
:10386C00074840F2F113074A05F0CFFD40F2F11181
:10387C00044805F0C1FD6FF08500E0E744C5000089
:10388C0060B7000018C500002DE9F043466840F20F
:10389C000635337CD00601F01F0747EA431748BFB3
:1038AC00032302EA050558BFC2F3401387B0B5F5F0
:1038BC00837F14468DF8033044D00DD8062D43D0A9
:1038CC0005D8A5B1022D12D06FF0150037E0B5F573
:1038DC00807FF9D101250AE040F20222954235D0D1
:1038EC00B5F5407F34D0B5F5007FEDD1042501232B
:1038FC00220303FA01F12DD573685960B06870BBCF
:10390C0003A80397FFF710FF039B00EB830084F4DD
:10391C008033C3F30043C4F34044D0F8802044EA1E
:10392C0043049DF8033022F4706244EA830422F0CD
:10393C000F0244EA05231343C0F88030002007B07F
:10394C00BDE8F0830925D2E70825D0E70625CEE7A8
:10395C000525CCE7630344BF73689960CEE739460D
:10396C000DF1020201F096F814F4403F804617D195
:10397C003946B06801F02CF9B8F1000FDED19DF892
:10398C000210B06801F03CF90028D7D01E491F483E
:10399C00FC231F4A05F039FDFC211D4805F02CFDC8
:1039AC004FF0000901ABCDE90199CDE90439CDF80F
:1039BC000C903946B06803AA00F002FF4845BDDB05
:1039CC0014F4003314D09DF8033084F48034C4F321
:1039DC0000448DF80E308DF80C508DF80D404B4690
:1039EC003946B06803AA00F0B3FF0028C4DAA5E793
:1039FC00CDE904330DF1030303933946B06803AAF0
:103A0C0000F0DEFEF1E700BF44C5000060B7000027
:103A1C0018C500004209022A034670B503D0012ADA
:103A2C001FD002B370BD154E326951680029F9D010
:103A3C00012503F01F030C689D400029F2D08A6811
:103A4C002A4014D04B6883B90D4974230D4A0E4893
:103A5C0005F0DBFC0D4805F0D8FC7421094805F095
:103A6C00CBFC0B4EE0E70B4EDEE7304698471CB123
:103A7C00236821461C46E0E72346FAE7F8A300003A
:103A8C004DC5000045C4000060B70000ABC4000089
:103A9C00DCA30000C0A3000038B54568A868C0B11D
:103AAC0001F07CF80146A0B9A86801F027F804469B
:103ABC0088B902460949A86800F0D4FF22460121C2
:103ACC00DB20FEF785FF2246012140F20D10FEF7A8
:103ADC007FFF002038BD6FF00400FBE7213A0000A7
:103AEC0008B503685F2B4FEA531107D80C4A03F053
:103AFC001F0352F82120DA40D2070BD409490A4897
:103B0C004FF47473094A05F080FC4FF47471074844
:103B1C0005F072FC0360064B53F8210008BD00BF92
:103B2C0070AE0000F5C4000060B70000C2C4000015
:103B3C0064AE00002DE9F04F1546824640F2FF19A5
:103B4C00DFF86CB185B000EB8108D04503D10020C3
:103B5C0005B0BDE8F08FDAF80010C1F3C322082AD3
:103B6C00C1F3080400F2A080524B4C4508BF4FF043
:103B7C00FF34B1F1D05F9F5C4FEA116210D2192A69
:103B8C0012D8DFE802F0142265622930621111119B
:103B9C001111111111111111111111116873767983
:103BAC00382A6CD04E2A53D06FF08500D0E7C5F878
:103BBC000446601C14D0012603A80394FFF790FF61
:103BCC00039A06FA02F2426004E0C5F80C46621C45
:103BDC0006D00026314614E0631CC5F8004661D1BE
:103BEC000AF1040AB1E7661CC5F80446F8D00126B0
:103BFC0003A80394FFF774FF0121039A01FA02F260
:103C0C008260DAF80020039402F40040002818BF08
:103C1C00002103A818BF012601920091FFF760FF55
:103C2C00039C019A00EB8400D0F88040C2F3412C35
:103C3C0000993A0242EA8C020A4304EA0B0422433A
:103C4C0042EA4602C0F88020CAE7C5F80846BEE73B
:103C5C00C5F81046ADE7C5F86045611CDAF80020E0
:103C6C00BED0C2F30042002AC1D0A4E7C5F8644517
:103C7C00F3E7C5F86845F0E7C5F86C45EDE703A830
:103C8C000394FFF72DFF039A631C00EB8200D0F81E
:103C9C00802022F0E04242F08042C0F880209FD089
:103CAC00012697E70026A3E76FF0150050E700BF49
:103CBC00F0F0FCFF7BC500002DE9F04104460D46F9
:103CCC00476805F024FF88B12021EFF311831A46D1
:103CDC0081F31288BFF36F8F60680068D0F83001F1
:103CEC00D0B983F31188BFF36F8FEEE71E4B1B78AF
:103CFC00002BE9D04FF02008642663681B68D3F8CA
:103D0C003031FBB9012005F073FD013EF5D10021E6
:103D1C00012003F0BBF9EFE77B6A00201D7063689C
:103D2C00796A1B68C3F83C170121C3F84017C3F824
:103D3C003001D3F83001196582F31188BFF36F8F0E
:103D4C00BDE8F081EFF311831A4688F31288BFF3B4
:103D5C006F8F61680968D1F830110029DCD183F3C9
:103D6C001188BFF36F8FD2E7030E00202DE9F041CD
:103D7C001D46114E1446D6E90087B2EB080065EBE0
:103D8C00070100234FF47A72FCF772FB4FF47A733D
:103D9C00A0FB031311EB080147EB0307074BC6E924
:103DAC000017C3E9004500240025054BC3E9004575
:103DBC00BDE8F04103F010BD580300204003002083
:103DCC005003002038B500220121E420FEF700FE4C
:103DDC001A4A0020D2F8183723F44033C2F81837A7
:103DEC0001F012FA002828DB0120154901F0BCFA79
:103DFC00002822DB01F0CAF94FF47A720023044642
:103E0C000D46FCF735FB4FF0FF304FF0FF31A41A95
:103E1C000C4A65EB0303C2E900430B4AC2E90043B9
:103E2C000A4B0022C3E90001094B0A49187A01F038
:103E3C00D5F967220020084B1A6038BD00200E50BF
:103E4C00F00100205803002038030020400300201C
:103E5C00E8010020793D00006806002008B501F05B
:103E6C0095F9074AD2E90032C01A064B61EB020100
:103E7C00C3E900014FF47A720023FCF7F9FA08BD8C
:103E8C005803002050030020F7B5234B8446234FE2
:103E9C00187A234BD7E90045D3E900239D4208BF8C
:103EAC00944214D11F4B9C4511D84FF47A7101FBED
:103EBC000CF1012938BF012101220C1945F1000533
:103ECC00C7E9004503B0BDE8F04001F0F7BA164B66
:103EDC00164AD3E90061D2E90032F61841EB02012F
:103EEC004FF47A7E32460B46CCFB0E239442C7E944
:103EFC00002375EB03070DD2A41B65EB0105C82C41
:103F0C0075F10005B4BF01210021009101F096FA72
:103F1C0003B0F0BD0021F8E7E801002048030020C1
:103F2C00400300209BC420005803002050030020B5
:103F3C00064BD3F840231C2A05D1D3F84403431E67
:103F4C005842584170470020704700BF00C0FF0026
:103F5C0003689A070CD50368DB070DD50922074BBC
:103F6C00C3F80C250F22C3F8042501221A60FEE7C2
:103F7C00034B0360EF3B0360704700BF00801050A1
:103F8C00F000FA5008B50123404A4148C2F8003805
:103F9C00404AD2F840231C2A04BF3F4AC2F80C34D2
:103FAC00FFF7D6FF0830FFF7D3FF0830FFF7D0FF3D
:103FBC000830FFF7CDFF00F5F470FFF7C9FF374A63
:103FCC00D2F88C3043F44063C2F88C300022D3001A
:103FDC0003F57F0303F54043D3F8001401310AD0F5
:103FEC00D3F8001439B1D3F800140132D3F80434E7
:103FFC00402A0B60EBD1254BD3F84024002A41D04A
:10400C00FFF796FF48B1234BD3F83423244B9A4245
:10401C009EBF1E4B234AC3F84026FFF789FF18B1F9
:10402C00214B224AC3F8AC27FFF782FF48B1342258
:10403C00164BC3F82426D3F83C2622F40022C3F8EE
:10404C003C261B4B1549D3F80026D20744BF6FF012
:10405C000102C3F80026174BD3F8182522F00302EF
:10406C00C3F81825D3F8182542F00302C3F8182515
:10407C00D1F88C2042F44062C1F88C200022C3F8A5
:10408C00A02508BDC822C3F84024B9E7000012508F
:10409C0000C50D5000C0FF000030055000ED00E0E1
:1040AC00001D0A1840E0A91E00A0085078000A0460
:1040BC0000E0105000B00450014B1B68184700BFC3
:1040CC006C06002010B50C4C237993B90123237195
:1040DC000A4B0028206018BF184600F0A3F950B90D
:1040EC0023680748002B08BF1846BDE8104000F0B5
:1040FC00A7B86FF0770010BD6C060020C54000001B
:10410C006798000008B50D4B1A794AB90C490D484F
:10411C00B1230D4A05F079F9B1210B4805F06CF982
:10412C001B6853B140F20510FEF744FC28B9BDE8FA
:10413C00084040F20510FEF71BBC08BD6C060020C1
:10414C00CCC5000060B700008FC5000008B5124B4D
:10415C001B795BB9114940F20513114A114805F05E
:10416C0054F940F205110E4805F046F958B10128F2
:10417C000DD00D494FF49273094A0A4805F045F9E0
:10418C004FF49271EFE7BDE8084000F06BB8BDE862
:10419C00084000F055B900BF6C060020CCC50000EB
:1041AC008FC5000060B7000073C9000008B5124B42
:1041BC001B795BB9114940F22B13114A114805F0D8
:1041CC0024F940F22B110E4805F016F928B10128FC
:1041DC0007D1BDE8084000F079B9BDE8084000F00F
:1041EC0091B809494FF4A573054A064805F00DF935
:1041FC004FF4A571E7E700BF6C060020CCC50000AA
:10420C008FC5000060B7000073C9000038B50423E7
:10421C000A4C42F21075C4F8083301236361002381
:10422C00C4F80831D4F80831D4F84C34DB0304D585
:10423C00012005F0DDFA013DF6D138BD00E010504B
:10424C00064A13793BB9012110601171044A1846D2
:10425C00C2F8403470476FF0770070477406002046
:10426C0000E0105010B5224C23794BB9214922485B
:10427C00E523224A05F0C9F8E521204805F0BCF8F1
:10428C001F4BD3F84C14D3F84C24C80318D502F0A8
:10429C000302012A03D00AB1FFF7B8FF0022184B22
:1042AC00C3F840240022C3F80821D3F808210122C6
:1042BC001A61226872B9D3F80821002AFBD011E0E8
:1042CC00D3F84824D107E9D5D3F850249207E3D486
:1042DC0022681AB10422C3F8042310BDD3F80821B4
:1042EC00002AFBD00022C3F80821D3F80831F4E7E8
:1042FC0074060020CCC5000060B70000EAC50000C1
:10430C0000E0105008B5094B1B795BB90849094806
:10431C004FF49173084A05F078F84FF49171064800
:10432C0005F06AF8BDE80840FFF770BF740600207E
:10433C00CCC5000060B70000EAC5000070B50125CF
:10434C001E4C1F4ED4F80C0300F00C0000B970BDCD
:10435C00B0FA80F00021C0F11F00830003F58073D8
:10436C009BB203F1A04303F58713196005FA00F221
:10437C0002281B68C4F8082313D1D4F84C34D4F8A1
:10438C004C349B070AD10423C4F84054C4F80433BA
:10439C002561D4F80C0300F00C00D7E7336898477C
:1043AC00F7E7084908484FF4F573084A05F02DF86B
:1043BC004FF4F571054805F01FF800BF00E01050F0
:1043CC007406002073C9000060B70000EAC5000045
:1043DC00712238B5104B0021C3F80823012242F298
:1043EC0010745A60C3F80011D3F800110B490A4D30
:1043FC00D1F840131C2908BFDA60D5F80C3413F43B
:10440C00803305D0012005F0F3F9013CF5D138BD1E
:10441C00034A5371FBE700BF00E0105000C0FF00DF
:10442C007C060020054B0246187918B91A60012247
:10443C001A7170476FF07700704700BF7C06002040
:10444C0008B51C490B794BB91B491C4892231C4AD3
:10445C0004F0DBFF92211A4804F0CEFF0022194B26
:10446C00C3F81021D3F81001C3F81821D3F81801A0
:10447C00C3F81421D3F814011348D0F840031C28B6
:10448C0004BF01209860C3F80021D3F80021012259
:10449C001A600A6852B90B4BD3F80021002AFBD0E2
:1044AC000022C3F80021D3F8003102E07122C3F8D6
:1044BC00042308BD7C060020CCC5000060B70000BA
:1044CC002DC6000000E0105000C0FF0008B5084BDE
:1044DC001B794BB907490848B223084A04F095FFE9
:1044EC00B221064804F088FFBDE80840FFF770BF12
:1044FC007C060020CCC5000060B700002DC6000073
:10450C00F8B50126214C224DD4F80C3303F071037D
:10451C0003B9F8BDB3FA83F30021C3F11F039A006A
:10452C0002F5807292B202F1A04202F5871211607C
:10453C0006FA03F7052B1268D8B2C4F808731DD01D
:10454C00202F0ED8D3B1042B0FD0124912484FF4A0
:10455C009D73124A04F059FF4FF49D710F4804F0FB
:10456C004BFF062BF1D1697108E002236B71C4F883
:10457C001411D4F814312023C4F804332B68984751
:10458C00D4F80C3303F07103C2E700BF00E0105005
:10459C007C06002073C9000060B700002DC6000027
:1045AC005F2898BF074B4FEA50129FBF53F8223039
:1045BC0000F01F0023FA00F000F0010088BF00207B
:1045CC00704700BFD8AE0000034A4309D35C00F02B
:1045DC001F001844C0B270472BC7000010B504462A
:1045EC000846FFF7F1FF00B204EB4000838ADA05BE
:1045FC001CD5C3F3432123F4F853838204F1120234
:10460C0004F1580032F8023F13F4807F03D0C3F357
:10461C00432399420AD09042F4D1002204EBC10307
:10462C005A6004F1600005F0FFF800B910BD0649AE
:10463C0006484FF4DB73064A04F0E7FE4FF4DB71D7
:10464C00034804F0D9FE00BF44C5000060B7000069
:10465C00ACC6000010B5016804460846FFF7A0FF81
:10466C0058B910494FF474730F4A104804F0CDFE3A
:10467C004FF474710C4804F0BFFE01F01F035F2966
:10468C0023604FEA511209D9094940F2D933064A3D
:10469C00064804F0BAFE40F2D931EBE7054B53F86B
:1046AC00220010BDF5C40000C2C4000060B70000B9
:1046BC0073C90000CCAE0000072808B50BD9084917
:1046CC00084840F2A733084A04F09FFE40F2A73195
:1046DC00054804F091FE800000F5807008BD00BF15
:1046EC00A2C6000060B700006DC60000F0B506461B
:1046FC00002487B0114F019117F8012B06AB03EB87
:10470C00D20313F8143C02F00702D34013F0010358
:10471C0006D10134032CEFD10023184607B0F0BDAD
:10472C00074A03AD07CA85E8070055F824100A6A42
:10473C0046F824200A62002AEBD0EEE73BC70000C3
:10474C0000AD0000F7B504460846FFF73DFF06B282
:10475C0004EB4606B38A0D46DB072BD5204605F045
:10476C0064F92946204605F081F858B1204605F039
:10477C00ABF80022276800B207EB8003C3F81025C2
:10478C00C3F81025204600242946FFF727FFB482E2
:10479C0001A80195FFF75EFF019B00EB8300D0F8A9
:1047AC008020064B134043F00203C0F880302046B3
:1047BC0003B0F0BD6FF01500FAE700BFF0F0FCFF9E
:1047CC002DE9F0430E461746044685B058B95D49AD
:1047DC005D4840F25E435D4A04F017FE40F25E41D4
:1047EC005A4804F009FE0846FFF7EEFED7F80080A1
:1047FC000546B8F1000F1AD0204605F05AF828BB30
:10480C004346CDE900008DF80E008DF80F000DF138
:10481C000F0230460DF10E0105F07FF82AB204EBC1
:10482C004202938A23F0020343F0010393827B68D4
:10483C00002B34D03146204693F80080D3F80490F6
:10484C0005F02CF828B1B9F1000F1FD06FF015004E
:10485C0028E028B204EB4000838A23F4604323F061
:10486C0020038382B9F1000F10D0B8F1030FEDD8FB
:10487C007B6821685B6893F800C001EB8C01B8F190
:10488C00000F12D1C1F81085C1F810852AB204EBC3
:10489C004202938A23F01C0343EA88039382BB6889
:1048AC0053BB002005B0BDE8F083D1F8102522F0F1
:1048BC000302C1F81025226802EB8C03D3F81025F3
:1048CC0022F4473222F47C72C3F8102541F6F072C0
:1048DC00D3F8101502EA061242EA08420A43C3F85A
:1048EC00102504EB4C03A3F86460838A43EA4C3331
:1048FC0043F020038382C9E73146D3E90078204690
:10490C00FFF76CFE002FCCD063689F4206D004F1F9
:10491C00600004F06FFF002804DAC3E7A368984531
:10492C00F5D1002004EBC003C3E901782DB204EBF0
:10493C004505AB8AC0B243EA402343F48073AB8293
:10494C00AFE700BFEAC6000060B70000ACC60000CD
:10495C002DE9FF410D4617461E46044658B93D4900
:10496C003D484FF48D633D4A04F04FFD4FF48D618B
:10497C003A4804F041FD0846FFF726FE804627B36F
:10498C00204604F08BFF18B9204604F06FFF18BBCB
:10499C002946204604F075FF10B17B78012B1BD003
:1049AC0001238DF80F3000237A1CCDE900732846C3
:1049BC00BB1C0DF10F0104F0B0FF0FFA88F304EBF0
:1049CC0043039A8A42F003029A82002E40D0294671
:1049DC00204604F063FF20B96FF0150004B0BDE869
:1049EC00F0810022377823684FEA870C03EB8703AA
:1049FC00C3F81025C3F810250FFA88F204EB420215
:104A0C00938A23F4604323F0200393827078F8B1E7
:104A1C002168134B6144D1F81045B6782340C1F896
:104A2C00103541F6F073000400F4403003EA05132E
:104A3C0003433005D1F8104500F4801003432343A1
:104A4C00C1F81035938A43EA473343F0200393822D
:104A5C000020C3E7EAC6000060B70000ACC6000047
:104A6C000FE0ECFF08B558B90749084840F271430C
:104A7C00074A04F0CAFC40F27141054804F0BCFC42
:104A8C00C0E9031208BD00BFEAC6000060B7000011
:104A9C00ACC6000070B51546044658B9134940F22F
:104AAC007A43134A134804F0B0FC40F27A411048A0
:104ABC0004F0A2FC4AB9104940F223330C4A0D48C9
:104ACC0004F0A3FC40F22331F1E704F0CFFE48B12F
:104ADC000846FFF779FD04EB40040020A38A5B0B2A
:104AEC002B7070BD6FF01500FBE700BFEAC600002D
:104AFC00ACC6000060B70000F5C600002DE9F0411F
:104B0C00044658B9204921484FF49163204A04F0D7
:104B1C007CFC4FF491611E4804F06EFC90F87450CC
:104B2C0090F8757065BBA84646222946143005F0EE
:104B3C0099FA184B266853F83770AF4213D10025F9
:104B4C0040F20D10C6F84451D6F84431124B9E4237
:104B5C0008BFDB20FDF70CFF0123284684F87430D6
:104B6C002366BDE8F081E8B2FFF7A6FDA0F58073DF
:104B7C009B08112B04BF46F8008033580135DCE745
:104B8C006FF07700EDE700BFEAC6000060B70000E9
:104B9C00ACC60000E4AE000000A00D5008B558B93A
:104BAC000849094840F28F43084A04F02EFC40F2B1
:104BBC008F41064804F020FC90F87400003818BFB0
:104BCC00012008BDEAC6000060B70000ACC60000BA
:104BDC0008B558B90749084840F29D43074A04F004
:104BEC0014FC40F29D41054804F006FCBDE8084069
:104BFC00FFF7A8BDEAC6000060B70000ACC6000015
:104C0C0008B558B90A490B4840F2A4430A4A04F0C3
:104C1C00FCFB40F2A441084804F0EEFB074B90F873
:104C2C00750003EB8000BDE8084004F0FDBD00BF3B
:104C3C00EAC6000060B70000ACC60000F801002016
:104C4C0010B50C4658B90C490C4840F2AB430C4A11
:104C5C0004F0DBFB40F2AB41094804F0CDFB094BFF
:104C6C0090F8750003EB800004F0C4FD0028A4BF8D
:104C7C002070002010BD00BFEAC6000060B7000025
:104C8C00ACC60000F80100202DE9F3410D46164694
:104C9C00044658B938494FF4A563384A384804F0EB
:104CAC00B4FB4FF4A561354804F0A6FB04F0E9FD14
:104CBC0048B9344940F23543304A314804F0A5FB39
:104CCC0040F23541EFE7204604F0D0FD276800B3F1
:104CDC00204604F0E3FD8046D8B9204604F0F4FDEC
:104CEC000546FFF7E9FC47F800803B5823682AB2D9
:104CFC0003EB8203D3F8102542F00102C3F8102510
:104D0C0026B101232268AB40C2F8143302B0BDE8CF
:104D1C00F081D7F814339B035CBF4FF40033C7F812
:104D2C0014334EB9184940F24F43144A144804F056
:104D3C006CFB40F24F41B6E72846FFF745FC04EB0D
:104D4C004004A38AC3F38203042B11D0052B11D08A
:104D5C0001A80195FFF77EFC019BC168D94001F0C9
:104D6C0001010231284602B0BDE8F04104F022BE38
:104D7C000321F7E70221F5E7EAC60000ACC6000004
:104D8C0060B70000FFC6000020C7000008B558B986
:104D9C000749084840F22F53074A04F036FB40F20B
:104DAC002F51054804F028FBBDE8084004F03DBE37
:104DBC00EAC6000060B70000ACC600002DE9F04F59
:104DCC0007468BB058B97649764840F25C63764A10
:104DDC0004F01BFB40F25C61734804F00DFB814650
:104DEC0059F8043B90F87540D3F8141300936F4BAB
:104DFC00C9B241F4003153F83420009804F0E9FDB5
:104E0C00810305463AD50023CDE907330993674B57
:104E1C0007A803EBC4035B6819460193FFF766FC14
:104E2C00042303EBC40303934FF0000B604B0DF111
:104E3C001C0A0293029A5D4912F8013B0292039AF2
:104E4C0002EBD3028A5C03F0070322FA03F3DA07BE
:104E5C001AD40BF1010BBBF1030F0AF1040AE9D1CF
:104E6C004FF400310022009804F0B3FD019907A81B
:104E7C00FFF73CFC0028D7D125F400350124002D88
:104E8C0077D10BB0BDE8F08F4A4B5B440493DAF852
:104E9C0000100029DDD091FAA1F1B1FA81F1049B47
:104EAC001C7841EA44142046FFF78EFB07EB4000C8
:104EBC00B0F81480C8084FEA9803059301231AF838
:104ECC00002001F0070103FA01F122EA01020AF8BD
:104EDC00002006A80694FFF7BDFB069A059B20321E
:104EEC0050F82220C8F382065B07B046C2F3014299
:104EFC0023D521464846D6B2424604F0EFFC06A81C
:104F0C000694FFF7A7FB069B203350F82330C3F31E
:104F1C0001439E4207D10021204604F04BFD31464F
:104F2C00204604F047FD06A80694FFF793FB0122E8
:104F3C00069B02FA03F30362A9E7022A0DD10321AF
:104F4C00204604F037FD06F00503012BEBD1424659
:104F5C002146484604F0C2FCE5E7022120460592B2
:104F6C0004F028FD032EF2D0059A032ADBD1022E81
:104F7C00ECE795FAA5F3B3FA83F3009904FA03F27C
:104F8C0025EA020503F5A27251F8222007EB430330
:104F9C004846B3F86410C2F3014204F09FFC6EE77C
:104FAC00EAC6000060B70000ACC60000E4AE00002A
:104FBC003BC700003BC700000123034A03FA00F083
:104FCC0093680343936070476000002073B50446F8
:104FDC000191EFF31186202383F31288BFF36F8FB7
:104FEC000B4D019B6A6801A81340019304F002FC6D
:104FFC00002807DB01226B68824023EA02036B6006
:10500C002070002086F31188BFF36F8F02B070BD43
:10501C006000002008B5154B027AD3F8101521F06A
:10502C0001010A43C3F810250268B2F5803F0BD387
:10503C000F4940F2B9730F4A0F4804F0E6F940F2F9
:10504C00B9710C4804F0D8F9C3F8A4264268FF2AB9
:10505C0009D90A4940F2C473064A074804F0D5F945
:10506C0040F2C471EDE7C3F8AC2608BD00200E5029
:10507C0071C700003EC7000060B7000099C7000070
:10508C000B2808B501D800290BDA0B490B4840F264
:10509C0016530B4A04F0B9F940F21651084804F0C3
:1050AC00ABF9000100F1A04041EAC27100F56220A9
:1050BC00C0F8281508BD00BF1BC8000060B7000071
:1050CC003EC700000B2808B50BD90B490B4840F222
:1050DC000B530B4A04F099F940F20B51084804F0B9
:1050EC008BF9000100F1A04000F56220D0F82415E6
:1050FC00D0F8200508BD00BFBFC7000060B7000096
:10510C003EC700000B2808B50BD911494FF4A0631A
:10511C00104A114804F079F94FF4A0610D4804F0DD
:10512C006BF9B3F5801F09D30C4940F20253094ABD
:10513C00094804F06AF940F20251EFE7000100F16E
:10514C00A04000F56220C0F82025C0F8243508BD29
:10515C00BFC700003EC7000060B7000057C8000082
:10516C00012303FA00F010F0670F0AD0064B5B68BE
:10517C00DB4303F0670303420CBF6FF01500002004
:10518C0070474FF0FF3070476000002038B50E4B71
:10519C001B78012B0BD14FF0FF326FF040430B4CBF
:1051AC00D4E90001824273EB0105F9D338BD0849FB
:1051BC00084840F21913084A04F027F940F2191173
:1051CC00054804F019F900BF6000002040270E507C
:1051DC0074C8000060B70000D3C7000030B50C25C0
:1051EC00074B1C1894F8544005FB0433C3E9031215
:1051FC0018750123034A8340C2F8243330BD00BF25
:10520C006000002000200E50F0B5504D85B02C7879
:10521C00002C40F095804E4A01AB07CA83E807008A
:10522C004C491846D1F8102522F00202C1F810257D
:10523C00FFF7F0FE0723672202F001012144013B36
:10524C00CCB24FEA5202F7D1052C7CD119464FF063
:10525C00010C3E4E00246720CFB204E00CFA02F29F
:10526C0020EA0200013490FAA0F25FFA84FEBE45F7
:10527C00B2FA82F2F2D30131327505292A4482F84E
:10528C00547006F10C06E5D10121002432489A082D
:10529C0001FA02F212F0670F18BF1C500433302BC6
:1052AC00F5D1E420FDF764FB2A4B0024D3F810253C
:1052BC00012622F00202C3F8102540F6FF72C3F853
:1052CC002823C3F88041C3F88040C3F88441C3F855
:1052DC008440C3F88841C3F88840C3F88C41C3F8B4
:1052EC008C40C3F89041C3F89040C3F89441C3F884
:1052FC009440C3F89841C3F89840C3F89C41C3F854
:10530C009C40C3F8A041C3F8A040C3F8A441C3F823
:10531C00A440C3F8A841C3F8A840C3F8AC41C3F8F3
:10532C00AC401E660D4B0E4A1B685D20B3FBF2F3BE
:10533C0058430C4B3343984720462E7005B0F0BDB4
:10534C006FF07700FAE76FF08B00F7E76000002052
:10535C000CAD000000200E5000210E50F401002076
:10536C0040420F0030AD000038B52D4B0C461B7879
:10537C00012B0BD02B492C4840F206232B4A04F06E
:10538C0044F840F20621294804F036F8284BD3F8AB
:10539C00102595073DD4D3F8102542F00202C3F82E
:1053AC001025C0B1D3F8482712F0010202BFD3F880
:1053BC00481741F00101C3F848171D4BD3F84017AB
:1053CC00D3F844174900F9D42AB9D3F8482722F066
:1053DC000102C3F84827174B174A1B681449B3FB43
:1053EC00F2F303EB4313BBB1D1F84027D1F8445788
:1053FC0015F080450BD14FF0FF312046FFF7E6FD4D
:10540C00002803DB2078FFF7D7FD284638BD013B89
:10541C00E9E76FF07700F9E76FF07300F6E700BF8C
:10542C006000002074C8000060B70000D3C7000003
:10543C0000200E50F401002040420F002DE9F041F5
:10544C0004461D46FFF78CFE904607469DF81860F3
:10545C0058B11549154840F2BB23154A03F0D5FF46
:10546C0040F2BB21124803F0C7FF12490B1993F805
:10547C0054300C3301EBC30041F8332045602B460C
:10548C0020466EB10C4EA400FFF73CFE33592BB1F5
:10549C00FFF77CFE4045A94100D23751BDE8F081B1
:1054AC00BDE8F041FFF72EBE9DC8000060B70000BC
:1054BC00D3C700006000002000210E50F8B505464F
:1054CC00FFF74EFE58B11149114840F21933114AF9
:1054DC0003F09BFF40F219310E4803F08DFF0E488C
:1054EC00431993F854300C3350F8334000EBC30C91
:1054FC00DCF80460641846F1000640F83340CCF840
:10550C0004602846BDE8F840FFF7BABD9DC800000E
:10551C0060B70000D3C70000600000202DE9F743FE
:10552C002C4B2D4FD3F82C6307F1880916B903B017
:10553C00BDE8F08396FAA6F80123B8FA88F803FAC6
:10554C0008F3D94326EA030607EB080393F85450F3
:10555C000C2303FB0573187D40450BD01F492048D5
:10556C0040F2B7331F4A03F050FF40F2B7311D48E9
:10557C0003F042FF1C4CDB684FEA880214441BB357
:10558C00D9E8EF3F03EA0102C9E8EC2FBCF1000FA8
:10559C00F6D123FA08F3DB0711D5FFF793FD02468A
:1055AC000B4621680029C1D0002121600C2101FB90
:1055BC000575296940460091E9688847B6E707EB0D
:1055CC00C503D3E91823ECE72268002AAED0236088
:1055DC00ACE700BF00200E5060000020BCC80000EB
:1055EC0060B70000D3C7000000210E50064C08B570
:1055FC000649074840F2D623224603F006FF40F244
:10560C00D621204603F0F8FEE0C8000014C90000C3
:10561C0060B70000202908B501D9FFF7E7FF054B5B
:10562C0040EA0120C3F80005D3F80024D207FBD5CB
:10563C0008BD00BF00B0045038B5436905463BB9FE
:10564C000024EA686042537843F00103537038BD7C
:10565C00984704460028F3D000F1FF03FE2B0ED927
:10566C002123094A09490A4803F0CFFE2968094851
:10567C00224603F0CAFE2121034803F0BDFEEB686D
:10568C0044421C70DDE700BF3AC900005DC9000050
:10569C0060B7000075C90000F8B504460D46EFF37D
:1056AC001187202383F31288BFF36F8F164B9E68EC
:1056BC0004F0F8F9042C0CD114498723144A15482A
:1056CC0003F0A3FE144803F0A0FE8721104803F05A
:1056DC0093FE85B1EB69C3F3080363B1022C0AD0C6
:1056EC000E498E230A4A0B4803F08FFE0C4803F038
:1056FC008CFE8E21EAE787F31188BFF36F8F30465B
:10570C00BDE8F840FDF7DEB884060020BCC90000F7
:10571C009AC9000060B70000D9C9000073C9000025
:10572C000ECA000038B50A4B53F82040013053F82C
:10573C002050A54200D838BD606830B1037EDB072D
:10574C0001D4FFF779FF0834F3E723689847FAE7A9
:10575C00F4AE0000012270B5374B032086B01A70EE
:10576C00FFF7E0FF04F03CFA0420FFF7DBFF334CBB
:10577C00334DAC42264628D932494423324A334869
:10578C0003F043FE324803F040FE44212E4803F060
:10579C0033FE54F80C3C059354F8103C049354F825
:1057AC00143C039354F8183C029354F81C3C01939A
:1057BC0054F8203C009354E90A2354E90C0100F0FE
:1057CC00E5FD54F8303C5E65D3E7AE4204F130049D
:1057DC00DFD301F00FFA194C1E4EAC421FD91949F8
:1057EC006823194A194803F010FE194803F00DFEFE
:1057FC006821CBE7D4E90A23B3F1FF3F08BFB2F12C
:10580C00FF3F05D052EA0301206803D101F070FC80
:10581C003034E2E73146183001F0A4FEF8E7E9D362
:10582C0001F05AFA03F037FD0B4A137B23F0010306
:10583C00137306B070BD00BF030E0020A8AC0000AF
:10584C00A8AC000060CA00003FCA000060B70000AE
:10585C008DCA0000879B0000F0030020902370B5D8
:10586C00134E012203FB0066002386B0CDE904230E
:10587C000F220193CDE9023214230E4D0E4903FB86
:10588C000055044601EB40214FF4007230460B4B9F
:10589C00009500F07BFD737B2C7423F00403737371
:1058AC00074B013403EBC423EE606B6006B070BD94
:1058BC006003002084060020082E0020DD59000023
:1058CC00082600207FB50020FFF72CFF324B03F594
:1058DC00006282F3088883F30A88E0232F4C84F853
:1058EC0022300023E37723766376A37684F8203086
:1058FC00626A42F4E022626284F82330FCF75AFFB9
:10590C00FDF7F0F84FF0FF33A362E362FDF7ACFA5A
:10591C00FDF710F9224800F0E7FD224B224A934292
:10592C000ED92249CC23224A224803F06EFD22488C
:10593C0003F06BFDCC211E4803F05EFD1C33EEE73B
:10594C00FCD30120FFF7EEFE02201C4CFFF7EAFE11
:10595C0001F04EFA1A4B00255C611A4B4FF40062B1
:10596C00059301231849CDE903532046174BCDE984
:10597C000155009500F00AFD0646637B204623F096
:10598C000403637300F0E0FE2846FFF767FF31461F
:10599C0020460E4AFDF78CF80826002000ED00E0AA
:1059AC0080040020A4A3000030A40000ACCA0000B6
:1059BC003FCA000060B700008DCA0000F003002051
:1059CC0084060020C4CA0000083000206157000083
:1059DC0008B50D4B9B6893F90E30002B09DB202486
:1059EC00EFF3118384F31288BFF36F8F03F0A2FDE2
:1059FC00F6E7064906481C23064A03F006FD1C215F
:105A0C00044803F0F9FC00BF84060020EACA000039
:105A1C0060B70000C9CA000008B583684BB90B49D0
:105A2C000B488F230B4A03F0F0FC8F21094803F03D
:105A3C00E3FCD0E9003213605A600023427BC0E9DA
:105A4C00003322F002024273836008BD3DCB00009C
:105A5C0060B7000012CB00002DE9F74F04460F464B
:105A6C0091461E469DF830A0EFF3058373B152EAC0
:105A7C0006030BD05D4981235D4A5E4803F0C5FCEB
:105A8C005D4803F0C2FC8121594819E004F1080576
:105A9C00EFF311884FF0200B8BF31288BFF36F8F4D
:105AAC00284601F005FD68B98823544A54495148E9
:105ABC0003F0ABFC2946534803F0A7FC88214F4860
:105ACC0003F09AFC284601F017FD626A23699A429A
:105ADC0074D2EFF311838BF31288BFF36F8F83F3C0
:105AEC001188BFF36F8F5BB94749A623474A4148DA
:105AFC0003F08BFC404803F088FCA6214348DFE709
:105B0C002668B4421AD0CEB13046FFF785FF06F1B5
:105B1C00180001F003FEE26800243946306904F0F5
:105B2C0094FA3046C6F8884000F00EFE41462846EE
:105B3C0001F006F8204603B0BDE8F08F206A6169D9
:105B4C00884202D3A369984207D331499C23284A3F
:105B5C00284803F05AFC9C2196E7E268BAF1000F42
:105B6C0021D0394604F071FA236AE2681344A26921
:105B7C002362934201D163692362636A01336362D6
:105B8C000024284601F0A2FC50BB4FF49A731B4A28
:105B9C002049184803F039FC29461F4803F035FC0E
:105BAC004FF49A718BE7E069814208BFE361E069C9
:105BBC003946801AE06104F048FADEE759EA060338
:105BCC000BD0164B22469B6841461F612846CDE9F7
:105BDC00009600F05BFE0446ACE76FF02204D0E7C1
:105BEC0088F31188BFF36F8FA4E700BF76CB00005A
:105BFC0054CB000060B70000BBCB0000EBB9000039
:105C0C0044BA000059BA0000BECB000012CB000011
:105C1C00D6CB000018BA00002FBA00008406002072
:105C2C002DE9F7430446884617461D46EFF30583D6
:105C3C0083B152EA05030DD05F494FF48A735F4A72
:105C4C005F4803F0E2FB5F4803F0DFFB4FF48A711F
:105C5C005A4818E004F10806EFF31189202383F366
:105C6C001288BFF36F8F304601F022FC68B988238D
:105C7C00554A5649524803F0C8FB3146544803F084
:105C8C00C4FB8821504803F0B7FB304601F034FCCC
:105C9C00636A002B64D0E2684046E16904F0D5F9F0
:105CAC00E369E2681344A269E361934204BF636948
:105CBC00E361636A013B6362EFF31183202282F399
:105CCC001288BFF36F8F83F31188BFF36F8F5BB9AB
:105CDC004049A623404A3A4803F097FB394803F061
:105CEC0094FBA6213C48CEE72568AC4248D0002D59
:105CFC0047D02846FFF790FE05F1180001F00EFD85
:105D0C00206A6369984202D3A369984209D3334944
:105D1C004FF49773294A2A4803F077FB4FF4977195
:105D2C0096E72969E26804F090F9236AE26828464C
:105D3C001344A2692362934204BF63692362636ABA
:105D4C00013363620024C5F8884000F0FDFC49462D
:105D5C00304600F0F5FE2546284603B0BDE8F0833A
:105D6C0057EA05031FD01E4B22469B684946C3F8D1
:105D7C0010803046CDE9007500F088FD0546EBE754
:105D8C000025304601F0A2FB80B94FF49A730E4AFD
:105D9C0014490B4803F039FB3146134803F035FB2B
:105DAC004FF49A716EE76FF02205EAE789F31188D8
:105DBC00BFF36F8FD0E700BF76CB000054CB000051
:105DCC0060B70000BBCB0000EBB9000044BA000088
:105DDC0059BA0000BECB000012CB0000D6CB00009D
:105DEC008406002018BA00002FBA00002DE9F341F8
:105DFC00044617461E46EFF3058565B158496F23D7
:105E0C00584A594803F001FB584803F0FEFA6F2139
:105E1C00544803F0F1FAEFF31188202383F312882E
:105E2C00BFF36F8F524801F043FB60B98823514A8E
:105E3C0051494D4803F0E9FA4D49504803F0E5FA51
:105E4C0088214C48E5E74A4801F056FBE3684C4A88
:105E5C009BB1A0689168884229D057EA06032ED1DD
:105E6C00434801F033FBA0B188F31188BFF36F8F67
:105E7C006FF00F0002B0BDE8F081916891F90E103F
:105E8C000133E36093683A482161A36001F01EFB83
:105E9C0078B94FF49A73374A3A49334803F0B5FA54
:105EAC003349394803F0B1FA4FF49A71C9E72169C3
:105EBC00E6E788F31188BFF36F8F0020DAE791F9DA
:105ECC000E1090F90E306FF07E029942A8BF194661
